:100000000C9417020C9434020C9434020C943402B5
:100010000C9434020C9434020C9434020C94340288
:100020000C9434020C9434020C940C200C94E020B8
:100030000C94A01A0C9434020C9434020C943402E4
:100040000C9434020C9434020C9434020C94340258
:100050000C9434020C94271B0C9434020C9434023C
:100060000C9434020C9434020C9434020C94340238
:100070000C9434020C9434020C9434020C94340228
:100080000C9434020C9434020C9434020C94340218
:100090000C9434020C9434020C9434020C94340208
:1000A0000C9434020C9434020C94340214001A00A0
:1000B0000800150017001C0018000C0012001300A7
:1000C00004001600070009000A000B000D000E00D6
:1000D0000F0029001D211B24062819432A422C4108
:1000E00005441134103128321E001F002000210069
:1000F0002200230024002500260027003A003B00B0
:100100003C003D003E003F004000410042004300F3
:1001100001000100010001004C000100010001008C
:10012000010001001E021F022002210222022302FE
:100130002402250226022702440045000100010096
:100140000100010001000100010035000100010073
:100150000100010001000100010001000100010097
:10016000010001000100010001002D002E002F0000
:10017000300031002B0001000100010001003600B9
:100180003700380033003400010001000100010095
:10019000010001005000510052004F000100010019
:1001A0000100010001002D022E022F023002310257
:1001B0002B00010001000100010036023702380265
:1001C00033023402010001000100010001000100BE
:1001D0004A004E004B004D000000000000000000EF
:1001E0002A2B280000000000000000000000000092
:1001F00000000029000000002C1E3420212224349D
:100200002627252E362D3738271E1F20212223246E
:1002100025263333362E37381F0405060708090A0A
:100220000B0C0D0E0F101112131415161718191AA6
:100230001B1C1D2F3130232D350405060708090A24
:100240000B0C0D0E0F101112131415161718191A86
:100250001B1C1D2F3130354C000000000000000039
:10026000000000000000000000000000000000008E
:100270000000000000000000000000007E0F00D41D
:10028000FFFFFFC7000000780E0356004F00490033
:1002900044003300300000000A0356004F004900BC
:1002A000440000000403090409025B00030100A0EC
:1002B000FA090400000103010100092111010001F4
:1002C0002240000705810308000109040100020320
:1002D000000000092111010001222200070582030C
:1002E00020000107050303200001090402000103A7
:1002F00000000009211101000122B6000705840356
:10030000200001120100020000000855F032350003
:1003100001010200010660FF0961A10109621500E7
:1003200026FF009520750881020963150026FF004D
:10033000952075089102C005010902A101850209F5
:1003400001A1000509190129081500250195087565
:100350000181020501093009311581257F9502755A
:1003600008810609381581257F95017508810605E4
:100370000C0A38021581257F950175088106C0C0D9
:1003800005010980A101850319012AB7001501267D
:10039000B700950175108100C0050C0901A1018508
:1003A0000419012AA002150126A0029501751081E9
:1003B00000C005010906A1018506050719E029E726
:1003C000150025019508750181020507190029EF1F
:1003D0001500250195F0750181020508190129050F
:1003E000950575019102950175039101C0050109FB
:1003F00006A101050719E029E715002501950875F3
:100400000181029501750881010507190029FF1571
:100410000026FF00950675088100050819012905C9
:10042000950575019102950175039101C000112494
:100430001FBECFEFDAE0DEBFCDBF11E0A0E0B1E03C
:10044000EEE3F7E402C005900D92AA39B107D9F79F
:1004500022E0AAE9B1E001C01D92AA39B207E1F792
:100460000E94EE100C944B230C94000085E008953C
:100470008530B8F46330A8F44A3098F450E09AE03C
:10048000699F400D511D1124FA019EE1899FE00DE5
:10049000F11D1124EE0FFF1FE455FF4F859194913C
:1004A000089580E090E0089581E0089581E0089546
:1004B0000E945602089508950E945B020895A5E0E7
:1004C000B0E0E5E6F2E00C94B72249835A8330911C
:1004D000A10189819A81311119C0662399F02223E3
:1004E00089F00E94F807182F682F89819A810E944D
:1004F000D40769817A81812F0E94640E2596E3E0FA
:100500000C94D3220E94E607182FF3CF0E94F8071D
:1005100069817A81F1CFFC01262F4081518162816E
:10052000738184810E945F02089581E00895CF93D2
:10053000DF93EC0160E00E948B02BE010E945C022E
:10054000DF91CF910895E1E0F0E0DF0102C0AA0F52
:10055000BB1F6A95E2F7BD01DF0102C0AA0FBB1FF6
:100560004A95E2F76A2B01C0EE0F2A95EAF7962F1B
:100570009823961302C08E2B0895E0958E2308953C
:10058000242F462F682F8091AE010E94A3020E9463
:10059000360708950E94920F08950E94960F0895BD
:1005A00008950E94CA060E94D0022FEF84E39CE0C7
:1005B000215080409040E1F700C0000008950E9463
:1005C000D1020E944B1B08950E94D1020E945C1B25
:1005D00008950F931F93CF93DF938C0161E00E94E6
:1005E0008B02EC01B8010E94E513811106C080E086
:1005F000DF91CF911F910F910895B801CE010E9414
:1006000058028823A1F3B801CE010E94C1188823A3
:1006100071F3B801CE010E94EA14882341F3B801B6
:10062000CE010E943318882311F3F80182818823B8
:1006300061F0C330FCE7DF07E9F058F4C115ECE7DF
:10064000DE07A9F0C130DC47B9F0C8010E945402AE
:10065000CFCFCB358CE7D807A9F0CC35ECE7DE0758
:1006600071F0CA35DC4789F70E94F50BEECF0E9486
:10067000DF02BDCF0E94FD0B0E94E402B8CF0E94B2
:10068000EB0BE3CF0E94F90BE0CF0E947C1A0E9493
:100690006F0308950E9473030E94811A08950895BC
:1006A0000E944F03089581E008950895CF93DF934A
:1006B000D82F0E945303C82F882319F08D2F0E9432
:1006C00055038C2FDF91CF9108950895CF93C82FB4
:1006D0000E9450038C2F0E945603CF91089580E012
:1006E0000E94660308950E940F190E9466030895F0
:1006F000CF930E940F19C82F80919C018C1779F01D
:10070000C0939C010E940C1B60939D0170939E01FD
:1007100080939F019093A0018C2F0E946603CF913C
:100720000895ABE0B0E0E7E9F3E00C94B8224F8322
:10073000588769877A878B8761110E94360B1E82E2
:100740001D8285E0FE013796DE01119601900D9223
:100750008A95E1F78C819D81892B61F449815A81C9
:100760006B817C818D819E810E945F0A2B96E2E0E5
:100770000C94D42289819A8189238F3F79F3CE0109
:1007800001960E9495028111E9CFF0CFFC01808192
:1007900091810E9425080895662329F00E94721114
:1007A0000E94451208950E94CC11FACFCF93C82F12
:1007B0008823B9F08CEF8C0F813AA8F46C2F8091CC
:1007C0000001909101010E94A219882329F08C2F29
:1007D0000E94F60A0E94570B8C2F0E94EE0A0E947C
:1007E000570BCF91089580E28C0F883048F4C77082
:1007F00081E001C0880FCA95EAF70E94190BEFCF7C
:10080000EBE5EC0FE33040F4F0E0EB5BFE4F808172
:1008100090E00E944419E5CFE8E5EC0FE93150F48F
:10082000F0E0EE0FFF1FED5EFE4F808191810E9490
:100830006919D7CF83E38C0F833198F661E08C2F51
:100840000E94CC03CECF882381F19CEF980F913A80
:1008500028F40E94F60A0E94570B089590E2980F20
:10086000983050F4877091E001C0990F8A95EAF7AB
:10087000892F0E941F0BEFCF9BE5980F933028F430
:1008800090E080E00E944419089598E5980F99310E
:1008900028F490E080E00E946919089593E3980F8E
:1008A000933118F460E00E94CC0308951F93CF9316
:1008B000DF93182FEB010E94D603209739F4812F84
:1008C0000E942304DF91CF911F9108958FE99FE04B
:1008D0000197F1F700C000002197EFCF70E060E0D2
:1008E000893311F460E570E00E945604089588236E
:1008F00021F00E94190B0E94570B0895882321F0C4
:100900000E941F0B0E94570B0895B0E0A0E0EBE897
:10091000F4E00C94B1226C01D62FC72FFC01128198
:10092000F580F2949FE0F9220E940F0BE82E8823B5
:10093000B9F0E12E1123A1F08C2F807F803421F0BB
:1009400080E28D0F8830D0F080917C0282FF16C04B
:1009500082E00E94BA0B0E940F0B91E0E82EE9267C
:10096000BC2EB2948FE0B822FBE0FB1508F468C0FF
:10097000EB2DF0E0E35BFC4D0C949B22E12CF0CFDF
:100980000C2F0F70C07F11F00295007F112399F09A
:10099000002359F080E28D0F883010F0D11107C08C
:1009A000802F0E94190B0E94570B8D2F41C0802F62
:1009B0000E94290BF8CF8D2F0E942304002309F4F5
:1009C0003FC080E28D0F883010F0D11104C0802F1D
:1009D0000E941F0B03C0802F0E942F0B0E94570BF9
:1009E0002FC00C2F0F70C07FC03211F00295007F16
:1009F000DD2381F0D13009F468C0112309F472C0FD
:100A0000FF2009F468C0F601858180FFCECF8F708A
:100A1000858361C080917C0282FD33C0112359F02F
:100A2000002329F0802F0E94190B0E94570B80E0B1
:100A30000E94D60305C080E00E9423040111C7CFA5
:100A4000EB2DE850FF0B349720F40E940F190E9401
:100A50006603EE2089F00E940B0B80FD0DC0F601AD
:100A600012820E94050B0E944807C6010E948A0656
:100A70000E94050B0E945407CDB7DEB7E9E00C9445
:100A8000CD22112389F0F11006C00E94390B802B72
:100A90000E947704D5CF21E0F212F7CF0E94390BE4
:100AA000802B0E94400BCCCFF11006C00E944D0B52
:100AB000802F0E947E04C4CF31E0F31609F2802F0C
:100AC0000E947E040E944D0BBBCF112331F085E0C4
:100AD0008F1508F4B5CF802FDBCF94E09F1508F475
:100AE000AFCFE6CFFF2021F3D93349F4FFEF27EE54
:100AF00033E0F15020403040E1F700C000008D2F7E
:100B00000E9423049DCF8C2F86958695837069F073
:100B1000813009F095CF8D2F9C2F9370111102C059
:100B200080E090E00E9469198BCF8D2F9C2F9370ED
:100B3000111102C080E090E00E94441981CF612F22
:100B40008D2F0E94CC037CCF8C2F837079F51111EF
:100B500077CF4D2F429546954770440F440F8D2F08
:100B60008F70042E01C0880F0A94EAF72D2F207190
:100B7000D4FF07C02FE030E001C0220F4A95EAF70A
:100B80002095C695C695C370822BC23049F058F4A3
:100B9000C13019F00E94240753CF0E941E0750CF86
:100BA0000E942A074DCF0E941B074ACF869511232A
:100BB00011F08C2F8170882309F442CF4D2F42957C
:100BC00046954770440F440F8D2F8F70042E01C03F
:100BD000880F0A94EAF72D2F2071D4FF07C02FE069
:100BE00030E001C0220F4A95EAF72095C695C695D8
:100BF000C370822BC23049F058F4C13019F00E9402
:100C000073071ECF0E946D071BCF0E94790718CF74
:100C10000E94360715CFCF70112329F08C2F0E9428
:100C200048078D2F35CF8D2F0E947E048C2F0E9478
:100C3000540706CFD23F51F160F4D03FB9F0D13F15
:100C400081F0112309F449C0F110AFCE8C2F8F71C0
:100C500021C0D33F11F1D43FA1F780917C0282FDE6
:100C600026C08C2F8F71112311F314C0112349F06A
:100C700084E08F1508F4E4CE8C2F8F710E946107F9
:100C8000DFCE95E09F1508F4DBCEF6CF8C2F8F7169
:100C90001111CDCF0E944807D3CE112329F08C2FFC
:100CA0008F710E943F07CCCE0E943B07C9CE112313
:100CB00049F0CF718C2F0E94480763E08C2F0E946F
:100CC0009C0BBECE81E00E94BA0BE1E0EF1508F06C
:100CD000B7CE82E00E94BA0BB3CEF11005CF8C2FB5
:100CE0008F71A5CF0F931F93CF93DF93EC01688192
:100CF00079818A810E9430088C010E947F070E94BE
:100D00001A07B801CE010E948504DF91CF911F918F
:100D10000F910895CF93DF93EC018B819C81892BF8
:100D200029F08881998189238F3F51F4DF91CF91F8
:100D30000895CE010E947206CE010E949702F6CF5E
:100D4000CE010E94E9028111F4CF0E940F0B88238B
:100D500069F38A81882351F380917C0282FFE6CF78
:100D600082E00E94BA0BE2CF90E080E00E9444193A
:100D700090E080E00E9469190E94360B0E94570B98
:100D80000E9461120E94451208950E94FE0A0E946C
:100D9000B40608950E94260B0E94C50608959295F8
:100DA0009F70963091F058F4925F9F70923058F493
:100DB000803F19F030F4883E30F481E008959A5F66
:100DC000F4CF843FD1F380E00895883EB0F3813FB3
:100DD000D1F7F3CFFC0183819481892B29F08081A5
:100DE000918189238F3F11F480E008958081918162
:100DF0000E9425080E94CF060895A5E0B0E0E3E038
:100E0000F7E00C94B8222596E2E00C94D422A6E0F8
:100E1000B0E0EDE0F7E00C94B8222696E2E00C9406
:100E2000D42208950E94110708950E94120780930A
:100E3000AF01089508950E94150708959091AF019C
:100E4000892B0E94150708959091AF0189230E9474
:100E5000150708959091AF0189270E9415070895FD
:100E60000E94110708950E94300708950E943307D9
:100E70008093AE01089580E00E943607089591E0C6
:100E800001C0990F8A95EAF7892F0E9436070895C5
:100E900021E030E001C0220F8A95EAF78091AE018F
:100EA000822B0E943607089521E030E001C0220F16
:100EB0008A95EAF720958091AE0182230E94360739
:100EC000089521E030E001C0220F8A95EAF7809171
:100ED000AE0182270E94360708959091AE01892BBA
:100EE0000E94360708959091AE0189230E9436072B
:100EF00008959091AE0189270E94360708950895BC
:100F0000262F277091E001C0990F2A95EAF723E078
:100F1000769567952A95E1F7FB01EE0FFF1FE60F27
:100F2000F71FE40FF51F50E040E0682F70E081915B
:100F3000DF0111979B01042E02C0369527950A9474
:100F4000E2F7217021952827292328272C934F5F2A
:100F50005F4F4330510559F70895A82FA77023E03C
:100F6000969587952A95E1F7FC01EE0FFF1FE80F94
:100F7000F91FE60FF71F50E040E080E0219130E0DC
:100F80000A2E02C0369527950A94E2F7217033277E
:100F9000042E01C0220F0A94EAF7822B4F5F5F4FA5
:100FA0004330510559F70895262F933070F48A3055
:100FB00060F4682F70E08AE0989F600D711D112425
:100FC00042EA51E0822F0E9480070895292F933032
:100FD00068F48A3058F490E062EA71E03AE0239FC6
:100FE000800D911D11240E94AD07089580E00895A1
:100FF000CF92DF92FF920F931F93CF93DF936C01F9
:101000000091AE018091AF01082BC7E0D0E010E065
:10101000FC2EC8010C2E02C0959587950A94E2F724
:1010200080FD0CC02197A0F7F12C8F2DDF91CF917F
:101030001F910F91FF90DF90CF900895B6018C2FF4
:101040000E94700E019771F3F0CFCF93DF93EC0104
:101050000E94F807BE010E94700EDF91CF910895A3
:101060001F93CF93DF93EB019091A101992339F066
:10107000CB010E942508DF91CF911F91089588230D
:1010800069F0CB010E94F807182F682FCE010E944B
:10109000D407BE01812F0E94700EEDCFCB010E94BC
:1010A000E607182FF6CF1F93CF93DF93C091B001BF
:1010B00016E08091B1018C1304C0DF91CF911F9194
:1010C0000895D0E01C9FF0011D9FF00D1124EE54F7
:1010D000FE4F4081518162817381848195810E949C
:1010E00007072196C770E5CF4091E2015091E301D7
:1010F0006091E4017091E5018091E6019091E70132
:101100000E94070708951F93CF93DF938091E70113
:10111000807F09F049C08091E401882309F444C02C
:101120008091B001C091B1016091E2017091E30141
:10113000A091E501B091E601D62FD72316E0C8179C
:1011400099F190E0109711F0DF3F19F40196877044
:10115000F6CF189F9001199F300D1124F901EE541C
:10116000FE4F41814713F2CF40814613EFCF4281BA
:101170004111ECCF438154814A1B5B0B483C510524
:1011800028F78091E7018F7080618093E701F90172
:10119000E954FE4F80818F708061808382EE91E000
:1011A0000E948A060E945308DF91CF911F910895F3
:1011B000A1E1B0E0EEEDF8E00C94B0228C0185E006
:1011C000F801DE011D9601900D928A95E1F7F80174
:1011D000E28082EEC82E81E0D82E6091E501709108
:1011E000E6016115710509F44EC19091E20120916B
:1011F000E301892F82238F3F09F445C1408151814A
:10120000A380B480F090E401F501E61BF70BFF200A
:1012100009F4EAC08091E701382F307FE83CF105FE
:1012200008F0A3C031116DC0FE2C251316C0941315
:1012300014C0E11012C08F7080618093E7010E949A
:101240007408C6010E948A068091E701F80185832F
:101250008F2D6196EAE00C94CC22A114B10429F000
:10126000842F85238F3F09F027C180E0F82FF1708C
:10127000DF2E80FF3CC08091B0012091B10136E0AB
:10128000821315C04D875E878D859E850E94250837
:10129000292F22952F702230F0F0243018F59F70FE
:1012A000F1F0F8019581907FD1F4D12C1EC090E02F
:1012B000389FF001399FF00D1124EE54FE4F6181EB
:1012C000651306C06081641303C06281E6120FC01B
:1012D00001968770D5CF9F7011F0882331F3805E1F
:1012E000883018F3C8010E948A06FD2CB1CFEE2089
:1012F00009F4AECF8091E70181608093E701F12C82
:10130000A7CF251306C0941304C0F801EE2009F4FA
:1013100087C0C8010E94EA06882319F1EE2009F16E
:101320008091E701803270F02091E2013091E30179
:1013300038872F831986BB86AA868C87CE010796AD
:101340000E948A0686E0F801A2EEB1E001900D92BB
:101350008A95E1F70E9483080E947408FF24F394A1
:1013600077CFC8010E948A06F9CF311113C07A2DB8
:10137000B98AA88A6E2D89890E94FD0682EE91E0C5
:101380000E948A0686E0F60111928A95E9F70E948A
:101390007408B5CF25130FC094130DC0E1100BC016
:1013A000F8018583C8010E948A0686E0F601119241
:1013B0008A95E9F74DCFC8010E94EA06882389F291
:1013C000EE2079F28091E701803208F4BBCF2091C2
:1013D000E2013091E3013A8329831B82BD82AC8212
:1013E0008E83CE010196ACCFE83CF10508F03EC0FB
:1013F000FE2CEE2009F4B5CF25132AC0941328C083
:101400008091E70180FD1BC0982F907FC1F0F8010B
:101410008583903F31F0982F907F905F8F70892B5C
:101420008583C8010E948A0686E0F801A2EEB1E039
:1014300001900D928A95E1F70E94740809CF86E029
:10144000F801A2EEB1E001900D928A95E1F700CF8C
:10145000C8010E94EA06811175CF8091E701816081
:101460008093E701C8010E948A06F2CE7A2DB98ADC
:10147000A88A6E2D89890E94FD0686E0F6011192E8
:101480008A95E9F7D9CFEE2009F46BCFC8010E9405
:10149000EA06F82E882309F464CF86E0F801A2EE6C
:1014A000B1E001900D928A95E1F782EE91E00E9401
:1014B000C6030E948308C0CF81E08E25D7CEACE062
:1014C000B0E0E5E6FAE00C94B7224F8358876987CD
:1014D0007A878B879C87CE0107960E94D80888233D
:1014E00069F08A859B85892B39F04F815885842F37
:1014F00085238F3F09F06BC016E05FC086E0FE01D8
:101500003796DE01119601900D928A95E1F78A8552
:101510009B85892B89F38F81988589238F3F61F380
:101520002091B10130E0C90101968770992740915F
:10153000B0014817190671F40E94CA061092B10151
:101540001092B00186E0E2EEF1E0DF011D928A9593
:10155000E9F7D2CF96E0929FD001939FB00D11246E
:10156000AE54BE4FFE01319601900D929A95E1F76F
:101570008093B1010E945308BFCF819FC001112405
:101580008E549E4F0E94D8088823E9F0E091B00164
:101590001E9FF0011124EE54FE4F40815181628163
:1015A0007381848195810E9407078091B00190E04A
:1015B0000196877099278093B0018091B001909136
:1015C000B1018913DACF2C96E3E00C94D32269851C
:1015D0007A858B859C850E9407078ECF682F809126
:1015E0000001909101010E94221A0895682F8091B4
:1015F0000001909101010E94301A0895809100012C
:10160000909101010E943E1A0895809108028595EB
:101610008595859508958091080287700895909129
:101620000802977081E009F480E0089580912B0210
:10163000089590912B02892B80932B020895809519
:1016400090912B02982390932B02089510922B02D5
:10165000089590912A02892B80932A0208958095FB
:1016600090912A02982390932A02089510922A02B8
:10167000089580910902089508950E943C0B0895F1
:1016800090917C0292FF08C090910902981721F076
:10169000809309020E943D0B0895809109028823DE
:1016A00029F01092090280E00E943D0B0895CF932B
:1016B000DF93E0910001F091010180912B02808382
:1016C000E0910001F0910101808190912A02892B23
:1016D000808390910902992381F0E0910001F091BB
:1016E00001018081892B808380910001909101010B
:1016F0000E948E1981110E944D0BC0910001D09162
:10170000010140E250E068EE71E0CE010E94F32258
:10171000892B59F080E2FE01A8EEB1E001900D9214
:101720008A95E1F7CE010E941C19DF91CF910895AF
:1017300008950E94980B089590917C0292FF11C029
:1017400098E0899F90011124622B609308020E9407
:101750004807809108028595859585950E94990B8B
:1017600008950E94480708951092080280E00E94A0
:10177000990B08959091080280958923809308021F
:10178000282F277091F4282F082E000C330B921766
:10179000130659F090917C0292FF07C085958595BC
:1017A00085950E9454070E94B40B089590917C0285
:1017B00092FB222720F9281769F080FB92F9909379
:1017C0007C0280917B0290917C020E941F0C82E03F
:1017D0000E94BA0B089580917C0282FB882780F9D1
:1017E00091E089270E94D60B089581E00E94D60BD4
:1017F000089580E00E94D60B08956FEF7FEF90E090
:1018000080E00E943523089590E080E00E9411233B
:10181000873E9E4F19F40E947F13089580E008953B
:1018200082E090E00E940923089583E090E00E9406
:101830000923089584E090E00E9411230895BC01DB
:1018400084E090E00E9435230895AB01BC018FE055
:1018500090E00E9429230895AB01BC0183E190E050
:101860000E942923089560E070E0CB010E942C0CB7
:10187000089560E070E0CB010E94250C0E94330CBB
:10188000089567EE7EEF90E080E00E94352360E0EF
:1018900082E090E00E94172360E083E090E00E94E5
:1018A00017231092AF0160E074E184E090E00E94A1
:1018B000352360E086E090E00E9417236FEF87E019
:1018C00090E00E94172340E050E0BA0188E090E0E9
:1018D0000E94292360E08DE090E00E94172340E001
:1018E00050E0BA0188E190E00E94292360E087E19E
:1018F00090E00E94172340E050E0BA018CE190E0B4
:101900000E94292370E060E080E290E00E9435238D
:1019100040E050E0BA0188E190E00E94292380E095
:101920000E9498130E94C7130E94390C08950E94C8
:10193000410C0895682F8EE090E00E9417230895CF
:101940000E940C1B609338027093390280933A0214
:1019500090933B0260933402709335028093360279
:10196000909337020895089508950E94B40C089545
:1019700008950E94B80C08958AE59FE00E94051919
:101980000E94B30C0E94B50C089581E008950E9456
:10199000C50C0895089508950E94CA0C0E94CB0CAE
:1019A00008950E94760F0E94650308950E94F71A19
:1019B0000E94D7130E944C100E94D10C0E94B90CB7
:1019C0000895AAE0B0E0E7EEFCE00C94AD220E949E
:1019D000621000912E0210912F0280E00E94990F58
:1019E00008171907D1F5009130021091310281E0FA
:1019F0000E94990F8017910781F500913202109192
:101A0000330282E00E94990F0817190731F50E94EE
:101A1000001B8C0180912C0290912D020817190750
:101A2000A1F08FEF89838A831B820E94001B816053
:101A3000782F9D838C8349815A816B818D810E948F
:101A4000910310932D0200932C020E9483120E9496
:101A500078032A96EDE00C94C92280913C0281FD26
:101A60000E94A20F0E94C70C782E2EE2822E22E046
:101A7000922E10E0812F0E94990F7C01F401A19019
:101A8000B1904F018A159B0561F1A826BF2400E0A3
:101A9000CC24C394D12CC5018C219D21892BC1F06C
:101AA0007720B1F00E831F8321E0C7018C219D2197
:101AB000892B09F420E028870E94001B8160782F81
:101AC0009A8789874E815F8168858A850E94910304
:101AD0000F5FCC0CDD1C0A30F1F6F4013297F18275
:101AE000E0821F5F133031F60E94A00CAECFCF937F
:101AF000DF930E94750EEC01811520E59207D0F569
:101B0000811530E4930708F086C0803E910518F5F2
:101B10008D3C910508F07DC0883A910570F4853AB6
:101B2000910508F06EC08130910501F10097F1F048
:101B30000497E0F4D0E0C0E019C0813C9105D0F7F3
:101B4000C85AD0E0CC0FDD1FC85BDE4F0990D881AA
:101B5000C02DD4640BC08115904208F0A8C0C115F7
:101B600081E0D80718F4C83ED10520F7CE01DF91F7
:101B7000CF910895803622E5920710F5803432E542
:101B8000930708F052C08032924508F047C0C11553
:101B900082E5D80708F47DC02C2F2695269540E2D3
:101BA000249F900111248C2F8370C1E0D0E002C0EB
:101BB000CC0FDD1F8A95E2F7C22BD32BDD68D6CF81
:101BC000803A22E5920760F4803832E5930708F402
:101BD00041C0CF71D0E0DC2FCC27C46FD06AC6CF14
:101BE000803C42E5940708F449C0C03E82E5D8072E
:101BF00008F0A0CFDC2FCC27CC27DF71C06FD06AD4
:101C0000B5CFC55AD0E0C658DE4FC881D0E0D06409
:101C1000ADCFD065ABCFDF70D06AA8CFCF71D0E0A9
:101C2000DC2FCC27C16FD06AA1CF282F269526950F
:101C3000277080E2289F900111248C2F8370C1E0CF
:101C4000D0E002C0CC0FDD1F8A95E2F7C22BD32B68
:101C5000DC688CCF282F26952695277040E2249F9C
:101C6000900111248370C1E0D0E002C0CC0FDD1FD1
:101C70008A95E2F7C22BD32BDA6878CF8F710E9456
:101C8000170FC82FD0E0DC2FCC27CC27DF71D06214
:101C90006DCF8C2F8F710E94170F35E0D695C795A9
:101CA0003A95E1F7CF709C2FEC01D0695FCF8D2F73
:101CB0008F710E94170F90E0982F882788279F71B7
:101CC0009C012C2BE901E3CF462F733030F46A30AE
:101CD00020F4672F0E944B17089590E080E008954C
:101CE0000E94640E0E94770D089582389105B9F123
:101CF000B0F48133910509F47DC048F4893291052F
:101D000009F46DC08A32910509F47BC008958533CA
:101D1000910509F45FC08933910509F10895833E67
:101D20009105D9F138F4803E910529F1823E910563
:101D300079F10895863E9105D9F1873E910509F420
:101D40003EC0843E910541F520917C0221FF24C0D4
:101D500080917B0284FD19C087EE90E00895209168
:101D60007B02237009F05AC020917C0223FF14C02B
:101D700089E290E0089520917B0220FD38C03091E7
:101D80007C0230FF09C024FF43C090E080E008954A
:101D900020917B0222FDF7CF089520917B0222FD46
:101DA0003AC030917C0230FD39C024FFF5CFEDCF31
:101DB00020917B0223FFF0CF24FDE7CFCDCF2091F0
:101DC0007B0223FD2EC030917C0231FFEECF84EEEA
:101DD00090E0089520917B0225FFDECFC9CF2091AE
:101DE0007B0225FD21C020917C0223FFD5CF89E312
:101DF00090E0D2CF20917B0226FFCECF8AE290E006
:101E0000089520917B0226FFC7CF81E390E00895DB
:101E100083EE90E0089582EE90E0089580EE90E0E9
:101E2000089586EE90E0089585E390E008959091FE
:101E30007B0292FF06C0282F28712830F9F4877F93
:101E4000846093FF06C0282F28712831F1F4877E23
:101E5000846120917C0220FF06C0382F3871383011
:101E6000D9F4877F816021FF06C0282F287128318F
:101E7000D1F4877E816194FD877E0895282F247197
:101E80002430F9F68B7F8860DCCF282F2471243131
:101E900001F78B7E8861DDCF382F3171313019F732
:101EA0008E7F8860E0CF282F2171213121F78E7E2F
:101EB0008861E1CF80E008950E94FD0B08950E94A3
:101EC00062108FE39CE90197F1F700C000000E94C7
:101ED000621080E00E94990F80FF04C00E945C0F96
:101EE0000E944B1B08950E945F0F08950E94040CEE
:101EF000811102C00E94970C0E94100C80933C023A
:101F00000E941A0C90937C0280937B020E94730FB4
:101F10000E94150C0E941B078091AE010E9433079E
:101F2000089508950E94910F089508950E94950FB5
:101F30000895E82FF0E0EE0FFF1FED57FD4F808171
:101F400091810895089580EA8A95F1F7089500C077
:101F500008950E94A30F0895F894E82FE295EF707A
:101F6000F0E031A1282F2F7081E090E001C0880FB0
:101F70002A95EAF7982F9095932391A392A1892B04
:101F800082A378940895CF93DF9386EF0E94AC0FDD
:101F900087EF0E94AC0F81E30E94AC0FCDE7D1E048
:101FA00089918F3F11F00E94AC0F81E0C738D807AC
:101FB000B9F7DF91CF910895AF92BF92DF92EF9280
:101FC000FF920F931F93CF93DF938C01D62EC62FD2
:101FD000D0E0CE0189579E4F7C01FC0120812F3F2C
:101FE00009F44DC0F894E22FE295EF70F0E031A1D2
:101FF0002F7081E090E001C0880F2A95EAF7932FB7
:10200000982B91A392A18095892382A378940E9412
:10201000A70FEDE7F1E047E851E021E030E0B12C17
:10202000A12C61916F3FA9F1A62FA295AF70B0E0EE
:1020300090968C9190E06F7002C0959587956A9507
:10204000E2F780FD26C0C901A82AB92A220F331F52
:102050004E175F0731F7F70180818F3F11F00E9423
:10206000AC0F61E0A114B10409F460E08D2D0E9471
:10207000A90FCC0FDD1FC00FD11FB982A882DF913D
:10208000CF911F910F91FF90EF90DF90BF90AF9095
:10209000089590E080E0D8CF0E94C30F86E0E3E887
:1020A000F2E0DF01982F1D929A95E9F7EDE7F2E053
:1020B000DF011D928A95E9F783E00E94A0100E943B
:1020C000CA020895A6E0B0E0E8E6F0E10C94B6227A
:1020D0008E010F5F1F4F86E0F80111928A95E9F794
:1020E00060E0C8010E94DC0F61E0C8010E94DC0FC3
:1020F00062E0C8010E94DC0F46E050E0B8018DE7C5
:1021000092E00E94F32221E0009709F420E0892B5D
:1021100041F086E0F801ADE7B2E001900D928A95BA
:10212000E1F743E063E872E08DE792E00E94A110DE
:10213000182F0E94CD02812F2696E4E00C94D22223
:102140000895CF92DF92EF92FF921F93CF93DF9388
:102150006C017B01C42F222349F081E080933F0270
:102160000E94001B90933E0280933D0210913F021B
:1021700011110AC010E0812FDF91CF911F91FF90C4
:10218000EF90DF90CF90089580913D0290913E02B4
:102190000E94181B059770F3D0E0CC0FDD1FAE0135
:1021A000B601C7010E94F322892B41F0AE01B601AE
:1021B000C7010E94002310923F02DDCF10E0FBCF49
:1021C0000E94E61C0E94D60C0E94F31C08950E94F7
:1021D000F81C0E94E10C0E94121D08950E94991A99
:1021E0000E94CC1C0E94BC0C0E94E0100E94E710D0
:1021F0000E94CC0CFBCF8091460280FF0DC0609105
:10220000070170E0660F771F6038710570F5611582
:10221000710569F1862F089581FF07C0609107015C
:1022200084E0689FB0011124EFCF6091070182FD27
:102230000AC0809145028823A9F02091060160918F
:102240000701821710F088E0ECCF869FC0011124AF
:1022500033E0880F991F3A95E1F7622F70E00E94F2
:102260008722D2CF68E070E0D5CF8FE7089581E074
:1022700008958091460280FF0CC06091030170E0D8
:1022800075956795759567956115710549F1862F67
:10229000089581FF06C06091030170E07595679510
:1022A000F3CF6091030182FD0BC09091440299230A
:1022B000A1F06091020180910301961738F0682F18
:1022C00070E06038710500F38FE70895899FC001C1
:1022D000112470E00E948722F4CF61E070E0D7CF34
:1022E00081E008958D3C31F40E94FB10819580932C
:1022F0004A0208958E3C19F40E94FB10F8CF8F3CDF
:1023000031F40E94FB108195809349020895803D2D
:1023100019F40E94FB10F8CF893D29F40E9439116D
:1023200080934B0208958A3D21F40E9439118195D2
:10233000F7CF8B3D31F40E943911819580934C0287
:1023400008958C3D19F40E943911F8CF9FE2980F3F
:10235000983070F4815D990B21E030E001C0220FCC
:102360008A95EAF780914802822B8093480208956B
:102370008D3D31F48091460281608093460208953C
:102380008E3D21F4809146028260F7CF8F3DB9F7F0
:10239000809146028460F1CF409149028D3C59F40E
:1023A00080914A0287FF0DC010924A0241110BC072
:1023B0001092450208C08E3C81F480914A021816A2
:1023C0009CF3442381F080914B0290914C02892B25
:1023D00009F05AC01092440208958F3C49F447FF17
:1023E000F0CF1092490280914A028111ECCFE0CFE8
:1023F000803D19F41416ACF3E4CF90914B02893D63
:1024000029F41916F4F610924B02DBCF8A3D19F429
:1024100097FFD7CFF8CF90914C028B3D29F497FFCF
:10242000D0CF10924C02CDCF8C3D19F41916CCF3BD
:10243000C8CF9FE2980F983090F4815D990B21E00E
:1024400030E0B90102C0660F771F8A95E2F7CB0131
:10245000809590914802892380934802B2CF8D3DA8
:1024600031F4809146028E7F80934602AACF8E3D42
:1024700021F4809146028D7FF7CF8F3D09F0A1CFE7
:10248000809146028B7FF0CF08950E94001B9C0133
:102490009091490280914A02982B21F03093430297
:1024A0002093420290914B0280914C02982B21F094
:1024B000309341022093400287E492E00E94361953
:1024C000089586E0E7E4F2E0DF011D928A95E9F7DE
:1024D0001092450210924402109246020895FC01A7
:1024E000828181110EC0838181110BC08481811191
:1024F00008C091E08581811101C090E0892F817031
:10250000089581E0FCCFA6E0B0E0E9E8F2E10C94A8
:10251000B72286E0E7E4F2E0DE01119601900D9229
:102520008A95E1F71092490210924A0210924B02EA
:1025300010924C028B819C81892B89F08091420200
:10254000909143020E94181BAC019091450299237F
:10255000C9F1809108018417150608F440C08D81E7
:102560009E81892B91F080914002909141020E94BE
:10257000181BAC0190914402992309F471C0809119
:1025800004018417150608F479C0BE016F5F7F4F00
:1025900087E492E00E94501A811105C087E492E01E
:1025A0000E946F1281110E94451286E0FE01319651
:1025B000A7E4B2E001900D928A95E1F72696E3E058
:1025C0000C94D322209109018AE0289F90011124C4
:1025D0002417350720F69F5F9093450202C09F3F66
:1025E000D1F71B81112359F00E94FB109FEF1116A8
:1025F0000CF491E0899F802D1124809349021C8165
:10260000112359F00E94FB109FEF11160CF491E07A
:10261000899F802D112480934A02309149023323EF
:1026200009F49DCF20914A02222309F498CF45EB6B
:102630003403C0011124992359F09093490245EBCA
:10264000240390011124332339F030934A0287CFB9
:1026500081E080934902F3CF81E080934A027FCFEB
:10266000209105018AE0289F900111242417350745
:1026700008F08BCF9F5F9093440202C09F3FD1F739
:102680001D81112359F00E9439119FEF11160CF48E
:1026900091E0899F802D112480934B021E8111238C
:1026A00059F00E9439119FEF11160CF491E0899FA7
:1026B000802D112480934C0230914B02332309F476
:1026C00064CF20914C02222309F45FCF45EB340301
:1026D000C0011124992359F090934B0245EB240338
:1026E00090011124332339F030934C024ECF81E016
:1026F00080934B02F3CF81E080934C0246CF82E27D
:1027000090E00E940923833289F483E290E00E94E2
:102710000923853059F484E290E00E94092391E076
:10272000833009F090E0892F8170089580E0FCCF1C
:10273000CF93C82F6FEF811163E282E290E00E9495
:1027400017236FEFC11165E083E290E00E94172329
:102750006FEFC11163E084E290E00E941723CF91F4
:102760000895089585E290E00E940923682F70E0A3
:1027700090E080E008950895CF93C62F0E94BB1388
:102780006C2F85E290E00E941723CF91089580E09E
:102790000E94981360E070E0CB010E94BC130E947D
:1027A000D9160E94A61781E00E94981308950E94EE
:1027B000B1130E94B2130E94BB130E947F138111B8
:1027C00002C00E94C71308950895CF93FB01C281F0
:1027D000CC2309F19C01225037472031310520F5E7
:1027E00082500E94B617C0E08C2FCF91089581E0EF
:1027F0000E94480743E062E081E00E94C002F3CFFC
:1028000081E00E94540743E062E081E00E94C00240
:10281000EBCF82E0F6CF8115F7E79F0789F3813090
:102820009747B9F3C1E0E0CF8115E7E79E07F9F2DA
:1028300081309747C9F682E0DBCF2FEFFC01208380
:1028400008950E941D14089580E00895EF92FF926C
:102850000F931F93CF93DF93EC01062F0E94241454
:10286000811110C0E881E150E331B8F4F0E0E75A9B
:10287000FC4D0C949B2219828BE08A83602FCE0141
:102880000E94C01BCDB7DEB7E6E00C94D022898150
:102890008230C1F028F4813061F08FEF8883EECF71
:1028A000833099F08430C9F71A821B821C821D8202
:1028B000E5CF0E940C1B0E94A1226A837B838C833C
:1028C0009D83DCCF0E94B213F6CF7E0110E0812FF2
:1028D0000E94990FF701928383831F5FF2E0EF0E4E
:1028E000F11C1330A1F7CACF8981823031F08530D5
:1028F000A1F68A810E94E413C1CF6A817B818C8119
:102900009D810E94A1220E94BC13B8CF4B816A8195
:1029100089810E949B169827892798279D838C83FD
:10292000ADCF2C813D813227232732274B816A810D
:1029300089810E94BD16A2CF0E94D9169FCF602F19
:10294000CE010E9421149ACF0E945717898396CFF7
:102950000E9459179827892798279A8389838ECFB1
:102960006B8170E089819A81AE014C5F5F4F98273F
:10297000892798270E945C1781CF6B8170E089813D
:102980009A81AE014C5F5F4F9827892798270E9454
:10299000811774CF0E94A61771CF0E948916D6CFD7
:1029A0006B8170E089819A81AE014C5F5F4F9827FF
:1029B000892798270E94051761CF6B8170E0898174
:1029C0009A81AE014C5F5F4F9827892798270E9414
:1029D000281754CFCF93DF93EC01FB01828188232A
:1029E00009F4D2C09E0130572332310508F0B2C03D
:1029F0000E941A0C90937C0280937B02FE01E150AE
:102A0000F047E232F10520F4E459FC4D0C949B228E
:102A100080917B02816080937B0293C080917C02D5
:102A2000886080937C028DC080917B028260F3CFAE
:102A300080917B028460EFCF80917B028860EBCF36
:102A400080917C028160EDCF80917C028260E9CF31
:102A500080917B028061DFCF80917B028062DBCF3F
:102A600080917B028064D7CF0E94CA0680917B024E
:102A70008068D1CF80917B028C60CDCF80917C0229
:102A80008360CFCF80917B028E7FC5CF80917C0207
:102A9000877FC7CF80917B028D7FBDCF80917B02E6
:102AA0008B7FB9CF80917B02877FB5CF80917C02ED
:102AB0008E7FB7CF80917C028D7FB3CF80917B02D8
:102AC0008F7EA9CF80917B028F7DA5CF80917B02E5
:102AD0008F7BA1CF0E94CA0680917B028F779BCF0C
:102AE00080917B02837F97CF80917C028C7F99CFEE
:102AF00080917B0282FB992790F921E0922790FB3D
:102B000082F990FB83F987CF80917C02982F909572
:102B100091708E7F892B90FB81F983CF90917B02FE
:102B2000892F8F7B96FF806476CF0E94CA06909192
:102B30007B02892F97FB87F980586DCF81E00E9437
:102B40009A0C80917B0290917C020E941F0C0E9443
:102B5000CA0680E0DF91CF91089580E0F0CF909198
:102B60007B02892F8F7E94FF806155CF90917B02ED
:102B7000892F8E7F90FF81604ECF90917C02892FAC
:102B8000877F93FF88604DCF81E0E4CFB0E0A0E085
:102B9000ECECF5E10C94B322E82FF0E0E852FE4FA4
:102BA000D490282F26952695269530E0F901E858EF
:102BB000FD4F0491877010E0082E02C0159507950F
:102BC0000A94E2F701701127F901E859FD4FE490EA
:102BD000F12C082E02C0F594E7940A94E2F791E0F4
:102BE000E922FF24F901E85AFD4FC491D0E002C068
:102BF000D595C7958A95E2F7C170DD2701151105B6
:102C000019F081EE0E94D603E114F10419F086EE6A
:102C10000E94D6038D2D0E946E04E114F10419F078
:102C200086EE0E9423040115110519F081EE0E9421
:102C30002304CD2B19F08CE20E946E04CDB7DEB7D1
:102C4000E7E00C94CF22EF92FF920F931F93CF9364
:102C5000DF93EC01162F0AE08881882309F454C021
:102C6000813009F04EC08981813099F47E0122E0E3
:102C7000E20EF11C8A810E946E04E7012196812FE9
:102C8000815050F3EFE9FFE03197F1F700C0000009
:102C9000F7CF823041F47E0182E0E80EF11C8A8198
:102CA0000E94D603EACF833041F47E01E2E0EE0ECB
:102CB000F11C8A810E942304E0CF843011F0219618
:102CC000DDCF2A81229690E080E0AE014F5F5F4F1A
:102CD0002053330B2A30310548F0019778F2EFE9A1
:102CE000FFE03197F1F700C00000F7CF089FB00177
:102CF000099F700D1124C901860F971F2981EA01D0
:102D0000E4CF0E94C615BACFCDB7DEB7E6E00C948B
:102D1000D02284E0089550E0440F551F94E1699F4C
:102D2000400D511D11249CE3899F400D511D11241C
:102D3000CA01869608950F931F93CF93DF93843033
:102D4000C8F46330B8F44A30A8F40E948B168C01A2
:102D50000E940923C82FD0E0DC2FCC27C8010196A0
:102D60000E9409239E01282BC901DF91CF911F9159
:102D70000F91089590E080E0F8CF0F931F93CF93C9
:102D8000DF93122F032F843078F4633068F44A30D5
:102D900058F40E948B16EC01602F0E941723612FBC
:102DA000CE0101960E941723DF91CF911F910F91C1
:102DB00008950F931F93CF93DF93D0E0C0E010E00E
:102DC00019C00E94360221E030E08C171D0639F050
:102DD00034F0402F612F8C2F0E9438029C01402F2D
:102DE000612F8C2F0E94BD160F5F0A3051F71F5FB5
:102DF000133011F000E0E5CF2196C430D105F9F68B
:102E0000DF91CF911F910F910895EF92FF920F9351
:102E10001F93CF93DF93EC018A017C01E60EF71E2E
:102E2000CE018696CE15DF0529F4CDB7DEB7E6E0F4
:102E30000C94D022C03FD10540F40E940923F80130
:102E400080830F5F1F4F2196EBCFF8011082F9CFDF
:102E5000B0E0A0E0EEE2F7E10C94B2227C016A015E
:102E60008C01060F171FEC01CE018696C017D10703
:102E700029F4CDB7DEB7E8E00C94CE22C03FD105EF
:102E800040F4FE01EE19FF09EC0DFD1D60810E946A
:102E900017232196E9CF843038F4633028F44A3080
:102EA00018F40E949B16089590E080E0089580E158
:102EB00008958AEE92E00895EF92FF920F931F9388
:102EC000CF93DF93EC018A017C01E60EF71ECE0161
:102ED0008A5E9E4FCE15DF0529F4CDB7DEB7E6E05A
:102EE0000C94D022CA3E22E0D20740F40E9409236B
:102EF000F80180830F5F1F4F2196E9CFF801108200
:102F0000F9CFB0E0A0E0E7E8F7E10C94B2227C0151
:102F10006A018C01060F171FEC01CE018A5E9E4FDD
:102F2000C017D10729F4CDB7DEB7E8E00C94CE2264
:102F3000CA3E22E0D20740F4FE01EE19FF09EC0D73
:102F4000FD1D60810E9417232196E7CFCF93DF9369
:102F5000C6E1D1E060E0CE010E9417232196C115A1
:102F600084E0D807B9F7DF91CF910895A8E0B0E0E9
:102F7000ECEBF7E10C94B022F82E8FE08F1508F4FB
:102F80006EC08FEF93E00E940923811168C006E1B3
:102F900011E0F11035C0FE0131966F0188E0119209
:102FA0008A95E9F77801FFEFEF1AFF0AC8010E943E
:102FB000092389831A82882309F451C08130D1F40E
:102FC000580182E0A80EB11CC7010E9409238A8320
:102FD000882309F444C09FEF980F9330F0F47801F0
:102FE00093E0E90EF11CC5010E9409238B8388231D
:102FF000B1F11C8260E0C6010E9423168701D2CF86
:10300000011594E0190759F1C8010E9409238111A3
:1030100001C0FA940F5F1F4FBCCF7501843051F788
:1030200002E010E07501EFEFEE1AFE0AC5010E9402
:103030000923F601E00FF11F8083882381F08C378C
:1030400041F4E2E0F0E0EC0FFD1FE00FF11F108211
:10305000D1CF0F5F1F4F57010730110519F7289681
:10306000EAE00C94CC22CF93DF93EB0186319C47AE
:1030700011F50E94160B9A81992399F08A7A91E0B2
:1030800009F490E090934D02811109C089E20E94F9
:10309000EE0A0E94570B80E0DF91CF91089585E3FF
:1030A000F6CF80914D02811104C089E20E94F60A98
:1030B000F0CF85E3FBCF81E0EFCF0F931F93CF934A
:1030C000DF93C42FD22FFC0182818823C9F0409363
:1030D00050020E94001B90934F0280934E0280E2A8
:1030E0008C0F883040F4C77081E001C0880FCA950A
:1030F000EAF70E947704DF91CF911F910F91089515
:1031000010915002141332C080914E0290914F02E0
:103110000E94181B883C910548F5C0E2CD0F1D1791
:10312000B9F080E2810F883040F4177081E001C06F
:10313000880F1A95EAF70E947E04C83048F481E0AF
:103140009D2F977001C0880F9A95EAF70E94770427
:10315000802F0E946E04C83070F6D77081E001C0E5
:10316000880FDA95EAF70E947E04C5CF80E28C0FC3
:10317000883008F6C77081E001C0880FCA95EAF769
:10318000F2CF0F93DB0188519C4787309105A0F562
:10319000FC01E257FC4D0C949B2206E221EE41EE2D
:1031A0006AE17CE7CD010E945D1880E00F910895EF
:1031B00007E225EE45EE6BE17CE7F4CF06E221EE77
:1031C00040EE68E17CE7EECF07E225EE44EE69E1F0
:1031D0007CE7E8CF06E221EE42EE6CE17CE7E2CF4D
:1031E00007E225EE46EE6DE17CE7DCCF08E221E068
:1031F00045EE6EE17CE7D6CF12968C91882319F0CC
:1032000010925002D3CF81E0D1CF90939B01809355
:103210009A01089590935602809355020895E09183
:103220005502F0915602309729F00190F081E02D7F
:103230000995089580E00895E0915502F0915602B5
:10324000309799F020911201222359F020917B02AE
:1032500027FF07C0DC012C9111962C93119726E0D3
:103260002C930280F381E02D09950895E091550299
:10327000F0915602309739F022E0DC012C93048063
:10328000F581E02D09950895A3E0B0E0EAE4F9E1C5
:103290000C94B82220915302309154022817390718
:1032A000A1F09093540280935302E0915502F09163
:1032B0005602309751F023E029839B838A8306804E
:1032C000F781E02DCE01019609952396E2E00C945A
:1032D000D422A3E0B0E0EFE6F9E10C94B82220910B
:1032E00051023091520228173907A1F090935202EF
:1032F00080935102E0915502F0915602309751F0BF
:1033000024E029839B838A830680F781E02DCE0108
:10331000019609952396E2E00C94D422FC013296A2
:1033200080911201882321F080917B029EE187FF2A
:1033300096E080E0915008F4089521912223D1F382
:103340008F5FF8CF662301F1209112012223F1F063
:1033500020917B0227FF1AC0462F46954695469539
:103360004E3190F4677021E030E002C0220F331F2D
:103370006A95E2F7840F911DFC01828190E0282379
:10338000392381E0232B69F480E00895FC01329613
:1033900008962191261721F0E817F907D1F7F4CF05
:1033A00081E008959C01FC0132969FEF80E04191FD
:1033B000461751F09F3F19F4411101C0982F8F5FBC
:1033C0008630A9F79F3F09F40895290F311D97FD15
:1033D0003A95F90162830895FC013296089621918D
:1033E000261303C0DF0111971C92E817F907B9F7FC
:1033F0000895E62FE695E695E695EE3168F4E80F38
:10340000F92FF11D677021E030E001C0220F6A95AD
:10341000EAF78281822B82830895E62FE695E6956E
:10342000E695EE3170F4E80FF92FF11D677021E099
:1034300030E001C0220F6A95EAF7209582812823A7
:103440002283089520911201222339F020917B02DA
:1034500027FF03C00E94F91908950E94D219089508
:1034600020911201222339F020917B0227FF03C013
:103470000E940D1A08950E94EC190895FC013296DD
:1034800080911201882351F080917B0287FF06C052
:103490008EE1DF011D928A95E9F7089586E0F9CF64
:1034A00046E050E00E94F32221E0892B09F420E05D
:1034B000822F089508950E945A1A0895811106C016
:1034C00081E0809357020E945B1A089582E0F9CF51
:1034D00083E0809357020E945B1A08950E945E1A4F
:1034E000089581E0809357020E945B1A08950E941C
:1034F000711A0895089508950E947B1A08950895F9
:1035000008950E947A1A0895CF930E947F1A0E940C
:1035100062100E94801AC0E08C2F0E94990F892BA4
:1035200031F4CF5FC330C1F780E0CF91089581E0DF
:10353000FCCF85B7806885BF85B7806885BF089553
:103540001F921FB61F9211248F939F93AF93BF9327
:1035500080915802811113C08091890290918A0252
:10356000A0918B02B0918C024196A11DB11D809358
:10357000890290938A02A0938B02B0938C02BF9130
:10358000AF919F918F911F901FBE1F9018958091B2
:103590009102843031F10E9445031092580288E173
:1035A00090E020E40FB6F894A895809360000FBED9
:1035B0002093600083B7817F846083BF83B781607D
:1035C00083BF7894889583B78E7F83BF0FB6F894B6
:1035D000A8958091600088618093600010926000DF
:1035E0000FBE08950E94CA060E944A03089582E011
:1035F00084BD93E095BD9AEF97BD80936E000895CA
:103600002FB7F8948091890290918A02A0918B0241
:10361000B0918C022FBF08952FB7F8946091890262
:1036200070918A0280918B0290918C022FBF089535
:103630009C014FB7F8948091890290918A02A091E1
:103640008B02B0918C024FBF821B930B089578942C
:103650001F921FB61F9211248F939F93AF93BF9316
:103660008091890290918A02A0918B02B0918C0284
:103670000196A11DB11D8093890290938A02A093A7
:103680008B02B0938C02BF91AF919F918F911F904D
:103690001FBE1F90189587E797E7909301088093C6
:1036A000000888E19AE00FB6F894A895809360002E
:1036B0000FBE90936000FFCF88E19AE00FB6F894B8
:1036C000A895809360000FBE90936000FFCF80911B
:1036D000790208959B01BA01909191029430E9F426
:1036E0008F708093E9009FEF8091E800915085FDF5
:1036F00006C085ED8A95F1F700009111F5CF809114
:10370000E80085FF0AC050E040E0C9010E94B11DF9
:103710008091E8008E778093E800089543E050E0C0
:10372000BC0184E00E946A1B089546E050E0BC01A1
:1037300084E00E946A1B0895CF93DF93EC0180918F
:103740001201811111C048E050E0BE0181E00E94E9
:103750006A1B80E2FE01A9E5B2E001900D928A9514
:10376000E1F7DF91CF91089580917B0287FF05C03B
:1037700040E284E050E0BE01EACF48E081E0FACFC9
:10378000603231F440E250E0BC0182E00E946A1BEA
:10379000089580919002811109C00E94901F0E949B
:1037A000ED1F8091E20084608093E2000895109202
:1037B000900208950E94711A089560918D0281E02F
:1037C000611101C080E00E94681A089590919102F1
:1037D00081E0943009F080E060918D020E946E1AC1
:1037E000089542E061EC81E00E940C1F42E261EC2E
:1037F00084E00E940C1F42E261EC82E00E940C1FF8
:1038000042E260EC83E00E940C1F9091910281E003
:10381000943009F080E060918D020E945E1A089554
:1038200080919302833009F463C030F48130E1F178
:10383000823009F4A0C008958A3009F48CC08B301E
:1038400009F471C0893009F052C08091920281322E
:1038500009F04DC08091960290919702009719F05F
:10386000029709F044C08091E800877F8093E800C8
:103870008091E80082FF37C09091F3008091F200C0
:10388000029731F48091F100813011F0863021F4FB
:103890008091F100809379028091E8008B7780938A
:1038A000E8000E94401F23C080919202813AF9F4FF
:1038B0008091E800877F8093E80080919602909144
:1038C0009702892B61F460E289E592E070E00E9442
:1038D0004F1E8091E8008B778093E800089560E0A8
:1038E00090E080E0F3CF809191028111C1CF0895E3
:1038F00080919202813AD9F7809196029091970235
:10390000892BA9F78091E800877F8093E800809158
:10391000E80080FFFCCF809112018093F10080913C
:10392000E8008E77BCCF80919202813201F78091BE
:10393000960290919702892BD1F68091E800877FBB
:103940008093E8000E94401F8091940280931201AE
:103950000E94CA06089580919202813241F68091B8
:10396000E800877F8093E8000E94401F80919502C5
:1039700080937A02089580919202813A09F0B7CF3C
:103980008091E800877F8093E8008091E80080FFC5
:10399000FCCF80917A02C1CF84B7877F84BF0FB6F6
:1039A000F894A895809160008861809360001092DF
:1039B00060000FBE80E890E00FB6F894809361003D
:1039C000909361000FBE0E94771A08950E94901F85
:1039D0000E94ED1FE2EEF0E08081846080837894A5
:1039E0000E946C2208958AE091E00E940A190895CD
:1039F00080919102853031F480919102853019F0E7
:103A00000E94F21A08950E94C71A80918F0288239B
:103A100099F30E94841A882379F30E949B1D0E94C7
:103A2000CA06EACFA0E2B0E0E8E1FDE10C94B822DA
:103A300080919102843009F583E08093E9008091C0
:103A4000E80082FF1AC08091E80090E085FF09C07D
:103A500050E040E060E270E0CE0101960E94001E5E
:103A600091E08091E8008B778093E800992329F01A
:103A700060E2CE0101960E942614A096E2E00C942A
:103A8000D4220E94441D0895292F33272330310565
:103A900021F168F42130310509F443C022303105A9
:103AA00009F444C090E080E030E020E026C02132FC
:103AB000310551F122323105A9F76330710590F7D4
:103AC000FB01EE0FFF1FE357FE4F20813181665748
:103AD0007E4FFB01808190E010C0992781309105D5
:103AE00081F0009729F00297E9F6E8E8F2E002C0D9
:103AF000E4EAF2E0849190E09F01FA0131832083AF
:103B00000895E8E9F2E0F6CF6330710558F6660FE4
:103B1000771FFB01ED56FE4F2081318189E090E057
:103B2000ECCF82E190E023E033E0E7CF8BE590E05B
:103B300028EA32E0E2CF80E189BD82E189BD09B4A3
:103B400000FEFDCF8091D8008F7D8093D8008091BA
:103B5000E00082608093E0008091E00081FDFCCF76
:103B60000895AF92BF92CF92DF92FF920F931F936F
:103B7000CF93DF936C01EB018A010E945F1FF82E47
:103B8000811123C00115110539F0F801808191815F
:103B9000C81BD90BC80ED91EB12CA12C2097A9F097
:103BA0008091E80085FD22C08091E8008E778093A7
:103BB000E80001151105A1F0F80180819181A80E9E
:103BC000B91EB182A08285E0F82E8F2DDF91CF91B2
:103BD0001F910F91FF90DF90CF90BF90AF9008950D
:103BE0000E945F1F8823D1F2F82EEFCFF60181915A
:103BF0006F018093F1002197FFEFAF1ABF0ACECF7C
:103C0000AF92BF92CF92DF92FF920F931F93CF9309
:103C1000DF936C01EB018A010E945F1FF82E811176
:103C200023C00115110539F0F80180819181C81B6D
:103C3000D90BC80ED91EB12CA12C2097A9F08091C8
:103C4000E80085FD22C08091E8008B778093E80032
:103C500001151105A1F0F80180819181A80EB91E0E
:103C6000B182A08285E0F82E8F2DDF91CF911F9138
:103C70000F91FF90DF90CF90BF90AF9008950E947A
:103C80005F1F8823D1F2F82EEFCF8091F100F6016B
:103C900081936F012197FFEFAF1ABF0ACECFFC01CE
:103CA000809198029091990286179707A0F061156C
:103CB000710529F49091E8009E779093E80090E0D8
:103CC0006115710551F4911108C08091E80082FFDF
:103CD00034C080E00895BC01F2CF80919102882326
:103CE000C1F18530C1F18091E80083FD30C0809141
:103CF000E80082FDEACF8091E80080FFE1CF80916B
:103D0000F3002091F200382F6115710519F0283069
:103D1000310558F091E02830310509F090E020910C
:103D2000E8002E772093E800CBCF81918093F100BB
:103D3000615071092F5F3F4FE7CF80919102882337
:103D400041F0853041F08091E80083FFBECF81E0F3
:103D5000089582E0089583E00895FC01809198021F
:103D60009091990286179707A0F06115710529F4C3
:103D70008091E8008E778093E80090E061157105EE
:103D800051F4911108C08091E80082FF35C080E0B5
:103D90000895BC01F2CF809191028823C9F185304A
:103DA000C9F18091E80083FD31C08091E80082FD77
:103DB000EACF8091E80080FFE1CF8091F30020916D
:103DC000F200382F6115710519F02830310558F0CF
:103DD00091E02830310509F090E08091E8008E777D
:103DE0008093E800CBCF84918093F10031966150AD
:103DF00071092F5F3F4FE6CF80919102882341F0F8
:103E0000853041F08091E80083FFBDCF81E00895C7
:103E100082E0089583E00895982F973028F08F70FE
:103E20008093E90081E008959093E900242F762F94
:103E300050E0981731F07091EC002091ED00509116
:103E4000F00021FD02C09F5FE8CF3091EB003E7F84
:103E50003093EB003091ED003D7F3093ED003091D9
:103E6000EB0031603093EB007093EC002093ED0099
:103E70005093F0002091EE0027FDE5CF80E00895FB
:103E80008091920287FF13C08091E80082FF06C0F4
:103E90008091E8008B778093E80004C080919102C4
:103EA0008111F2CF0895809191028823D9F38091F6
:103EB000E80080FFF8CF8091E8008E77ECCF20916A
:103EC000E4003091E50095E6A9012091EC00822FF5
:103ED000817020FF06C08091E80080FF06C080E06E
:103EE00008952091E80022FD1AC080919102882354
:103EF00089F0853089F08091EB0085FD0FC020911D
:103F0000E4003091E50042175307F9F29150E1F6D1
:103F100084E0089582E0089583E0089581E00895A3
:103F20000E94FF1F0E940720E0EEF0E08081816088
:103F30008083E8EDF0E080818F77808319BCA7ED66
:103F4000B0E08C918E7F8C9380818F7E80831092E5
:103F5000900208950F931F93CF93DF930E94FF1F4A
:103F60000E940720C8EDD0E088818F778883888100
:103F70008068888388818F7D888319BC1092910224
:103F800010928D0210928F0210928E0200EE10E0BD
:103F9000F80180818B7F808388818160888342E003
:103FA00060E080E00E940C1FE1EEF0E080818E7FF7
:103FB0008083E2EEF0E08081816080838081886090
:103FC0008083F80180818E7F8083888180618883EF
:103FD000DF91CF911F910F910895E8EDF0E080817E
:103FE0008F7E8083E7EDF0E080818160808384E0D4
:103FF00082BF81E0809390020E94AA1F0895E8ED9D
:10400000F0E080818E7F80831092E200089510920C
:10401000DA001092E10008951F920F920FB60F92EE
:1040200011242F933F934F935F936F937F938F93BD
:104030009F93AF93BF93EF93FF938091E10082FF33
:104040000BC08091E20082FF07C08091E1008B7F6E
:104050008093E1000E946B228091DA0080FF19C0FA
:104060008091D80080FF15C08091DA008E7F809308
:10407000DA008091D90080FF96C080E189BD82E19D
:1040800089BD09B400FEFDCF81E0809391020E94BA
:10409000C91B8091E10080FF19C08091E20080FF80
:1040A00015C08091E2008E7F8093E2008091E20053
:1040B00080618093E2008091D80080628093D80074
:1040C00019BC85E0809391020E94DD1B8091E10084
:1040D00084FF2BC08091E20084FF27C080E189BD6E
:1040E00082E189BD89B5982F917080FFFBCF8091C7
:1040F000D8008F7D8093D8008091E1008F7E8093DF
:10410000E1008091E2008F7E8093E2008091E200E6
:1041100081608093E20080918D02882309F449C078
:1041200084E0809391020E94E61B8091E10083FF6E
:1041300029C08091E20083FF25C08091E100877F44
:104140008093E10082E08093910210928D02809131
:10415000E1008E7F8093E1008091E2008E7F80936A
:10416000E2008091E20080618093E20042E060E042
:1041700080E00E940C1F8091F00088608093F00026
:104180000E94DA1BFF91EF91BF91AF919F918F91A8
:104190007F916F915F914F913F912F910F900FBE43
:1041A0000F901F90189519BC109291020E94D71B76
:1041B00070CF8091E30087FD93E090939102B3CF9D
:1041C0001F920F920FB60F9211242F933F934F938C
:1041D0005F936F937F938F939F93AF93BF93CF938F
:1041E000DF93EF93FF93D091E900DF708091EC00B3
:1041F000C82FC17080FDC0E81092E9008091F000E6
:10420000877F8093F00078940E9424211092E90027
:104210008091F00088608093F000CD2BCF70C09328
:10422000E900FF91EF91DF91CF91BF91AF919F9105
:104230008F917F916F915F914F913F912F910F904F
:104240000FBE0F901F901895AAE2B0E0EAE2F1E2EB
:104250000C94B72282E992E02091F100FC012193B5
:10426000CF01F2E08A399F07B9F70E94101C8091B4
:10427000E80083FF1EC180919202909193029A30D0
:1042800008F017C1E92FF0E0EB56FC4D0C949B228F
:10429000803899F0823809F00CC1809196028F70B5
:1042A000873008F006C18093E9008091EB0085FB20
:1042B000882780F91092E90006C080918E029091C3
:1042C0008F02911182609091E800977F9093E800AF
:1042D0008093F1001092F1008091E8008E77E5C0A4
:1042E000882309F4D3C0823009F0E3C0809194029E
:1042F0008111D6C0809196028F702FEF280F263043
:1043000008F0D7C08093E9002091EB0020FFC8C0DF
:10431000933031F48091EB0080628093EB00C0C059
:104320009091EB0090619093EB0021E030E001C0B0
:10433000220F8A95EAF72093EA001092EA00809112
:10434000EB008860EACF8111B4C0109194021F770E
:104350008091E3008078812B8093E3008091E800D6
:10436000877F8093E8000E94401F8091E80080FFD3
:10437000FCCF8091E30080688093E30082E011111C
:1043800083E08093910295C08058823008F091C0FC
:1043900080919402909195028C3D23E09207A1F5C3
:1043A00083E08A838AE289834FB7F894DE0113960B
:1043B00020E03EE051E2E32FF0E050935700E4911B
:1043C00020FF03C0E295EF703F5FEF708E2F90E00B
:1043D000EA30C0F0C7968D939D932F5F243159F733
:1043E0004FBF8091E800877F8093E8006AE270E029
:1043F000CE0101960E944F1E8091E8008B7780933A
:10440000E80057C0C096E7CF60919602709197027E
:10441000AE014F5F5F4F0E94411DBC01892B09F423
:1044200048C09091E800977F9093E80089819A8135
:104430000E94AD1EE1CF8038E1F58091E800877FD2
:104440008093E80080918D028093F10045CF811127
:1044500030C090919402923060F58091E800877F9F
:104460008093E80090938D020E94401F80918D02FE
:10447000882311F084E005C08091E30087FDFACF26
:1044800081E0809391020E94F11B13C080919402FD
:10449000813079F481E0933009F080E080938F02DD
:1044A0001092E9008091E800877F8093E8000E94E5
:1044B000401F8091E80083FF0AC08091E800877F59
:1044C0008093E8008091EB0080628093EB00AA96D5
:1044D000E3E00C94D3220895CF9380919102882336
:1044E000A1F0C091E900CF709091EC00892F81700C
:1044F00090FD80E8C82B1092E9008091E80083FDD0
:104500000E942421CF70C093E900CF91089597FBBA
:10451000072E16F4009407D077FD09D00E94DF2201
:1045200007FC05D03EF4909581959F4F08957095B6
:1045300061957F4F0895EE0FFF1F0590F491E02DD8
:104540000994692796276927782787277827089568
:104550002F923F924F925F926F927F928F929F9293
:10456000AF92BF92CF92DF92EF92FF920F931F9381
:10457000CF93DF93CDB7DEB7CA1BDB0B0FB6F89432
:10458000DEBF0FBECDBF09942A88398848885F8472
:104590006E847D848C849B84AA84B984C884DF80E3
:1045A000EE80FD800C811B81AA81B981CE0FD11DC7
:1045B0000FB6F894DEBF0FBECDBFED010895AA1B64
:1045C000BB1B51E107C0AA1FBB1FA617B70710F0FE
:1045D000A61BB70B881F991F5A95A9F78095909530
:1045E000BC01CD010895FB01DC0104C08D91019057
:1045F000801921F441505040C8F7881B990B089549
:10460000FB01DC0102C001900D9241505040D8F7EF
:104610000895F999FECF92BD81BDF89A992780B58A
:104620000895A8E1B0E042E050E00C943D23262F2D
:10463000F999FECF92BD81BDF89A019700B4021698
:1046400039F01FBA20BD0FB6F894FA9AF99A0FBE46
:1046500008950396272F0E9418230E941723252FC1
:104660000E941823242F0C9418230196272F0E94B0
:1046700018230C941723DC01CB01FC01F999FECF20
:1046800006C0F2BDE1BDF89A319600B40D924150DA
:104690005040B8F70895F894FFCFC004C004F10467
:1046A000F10483059F0520052005A4050B061A06C5
:1046B0001A063B1447147414861491149C149F1406
:1046C0009F149F144D144D14A414A814B014BD14B9
:1046D000CA14CD14D014DD144215B6154A1514159C
:1046E00018154E151C1552155E152815AF152C15ED
:1046F0006215301566158E1534156A1595153A151F
:10470000701578152015561524155A153E15741573
:1047100084159E15AD150E154615BD15DE18E41849
:10472000CD18D818EA18F018F61848217021592227
:0E47300070215922A321C42159221B222722C5
:10473E000A02280850011E0A1401671B9C1B951BB8
:10474E008E1B01E200E900EA00B500B600B700CD0D
:10475E00008301CC008A01920194012102230224DC
:10476E00022502260227022A02B300B4006F00704F
:10477E00009F01CB01818283E200E900EA00B500CF
:10478E00B600B700CD008301CC008A0192019401DE
:10479E002102230224022502260227022A02B30046
:1047AE00B4006F0070009F01CB01818283F5F43558
:1047BE0034C69766949091F6F7314022B6ED031504
:0A47CE00033703BA02D302F302001E
:00000001FF
