:100000000C949F020C94BC020C94BC020C94BC0295
:100010000C94BC020C94BC020C94BC020C94BC0268
:100020000C94BC020C94BC020C9455300C942931F5
:100030000C94662A0C94BC020C94BC020C94BC0276
:100040000C94BC020C94BC020C94BC020C94BC0238
:100050000C94BC020C94092B0C94BC020C94BC02B2
:100060000C94BC020C94BC020C94BC020C94BC0218
:100070000C94BC020C94BC020C94BC020C94BC0208
:100080000C94BC020C94BC020C94BC020C94BC02F8
:100090000C94BC020C94BC020C94BC020C94BC02E8
:1000A0000C94BC020C94BC020C94BC0214001A0008
:1000B0000800150017001C0018000C0012001300A7
:1000C00004001600070009000A000B000D000E00D6
:1000D0000F0029001D611B64066819432A422C4148
:1000E00005441174107128721E001F0020002100A9
:1000F0002200230024002500260027003A003B00B0
:100100003C003D003E003F004000410042004300F3
:1001100001000100010001004C000100010001008C
:10012000010001001E021F022002210222022302FE
:100130002402250226022702440045000100010096
:100140000100010001000100010035000100010073
:100150000100010001000100010001000100010097
:10016000010001000100010001002D002E002F0000
:10017000300031002B0001000100010001003600B9
:100180003700380033003400010001000100010095
:10019000010001005000510052004F000100010019
:1001A0000100010001002D022E022F023002310257
:1001B0002B00010001000100010036023702380265
:1001C00033023402010001000100010001000100BE
:1001D0004A004E004B004D00FD377A585A0000048B
:1001E000E6D6B4460200210116000000742FE5A3F4
:1001F000E0013A00A95D003D8889C65436C3174F17
:10020000E4E7E3B0AFE0C9DC54738BFE0B8C699577
:100210002A05C3D7C3567AE5DEA59424C837369994
:1002200078628A22712F23937D7DCF5EC7CDF356EE
:10023000854D0E8313250306D9C893EB1BA47D7649
:10024000C199A46E2D40E9EFF15B31A0F9EE26884B
:100250003B8148521E45039F0597B6D8B79600AC20
:10026000594A294D401FB81153B8838FC13A80AD08
:100270004BCD1655C6615B761220A82F235E58A57C
:10028000D747CA936FDD92E8F7E20140FED54E6E84
:10029000B9AD49FE5F6C9AA816FEAA3740D083D14B
:1002A000000000009A99B405BEA6D6500001C50111
:1002B000BB0200009F6FE776B1C467FB020000003D
:1002C0000004595A00000000000000002A2B2800FA
:1002D00000000000000000000000000000000029F5
:1002E000000000002C1E3420212224342627252E35
:1002F000362D3738271E1F2021222324252633336D
:10030000362E37381F0405060708090A0B0C0D0E98
:100310000F101112131415161718191A1B1C1D2F64
:100320003130232D350405060708090A0B0C0D0E84
:100330000F101112131415161718191A1B1C1D2F44
:100340003130354C000000000000000000000000CB
:10035000000000000000000000000000000000009D
:1003600000000000000000007E0F00D4FFFFFFC768
:10037000000000781C037600690061006C003A0000
:100380006600360034006300320062003300630010
:1003900000000E0356004F004900440033003000B7
:1003A00000000A0356004F00490044000000040307
:1003B000090409025B00030100A0FA09040000011E
:1003C00003010100092111010001224000070581FC
:1003D00003080001090401000203000000092111C3
:1003E0000100012222000705820320000107050306
:1003F000032000010904020001030000000921118B
:1004000001000122BC000705840320000112010045
:10041000020000000855F032350001010203010618
:1004200060FF0961A1010962150026FF0095207592
:100430000881020963150026FF00952075089102C6
:10044000C005010902A10185020901A100050919E0
:100450000129051500250195057501810295017594
:100460000381010501093009311581257F95027548
:1004700008810609381581257F95017508810605D3
:100480000C0A38021581257F950175088106C0C0C8
:1004900005010980A101850319012AB7001501266C
:1004A000B700950175108100C0050C0901A10185F7
:1004B0000419012AA002150126A0029501751081D8
:1004C00000C005010906A1018506050719E029E715
:1004D000150025019508750181020507190029EF0E
:1004E0001500250195F075018102050819012905FE
:1004F000950575019102950175039101C0050109EA
:1005000006A101050719E029E715002501950875E1
:100510000181029501750881010507190029FF1560
:100520000026FF00950675088100050819012905B8
:10053000950575019102950175039101C000112483
:100540001FBECFEFDAE0DEBFCDBF11E0A0E0B1E02B
:10055000E0E5F8E602C005900D92A63AB107D9F79A
:1005600024E0A6EAB1E001C01D92A83EB207E1F77F
:100570000E9491130C94BC330C94000085E0089504
:100580009C013A9521153F4150F5FC01EE27F17091
:10059000BC0166277270AC01442754709C0122276D
:1005A000387094FF0EC080E1EF2B09F480E0672BD8
:1005B00009F08062452B09F08064232B89F0806864
:1005C000089581E0EF2B09F480E0672B09F0826049
:1005D000452B09F08460232B19F08860089580E092
:1005E0000895CF93DF93EB010E94C002FE010995AD
:1005F000DF91CF910895CF93DF93EC01805E910955
:10060000089720F06DEE77E0209711F46EE675E024
:10061000CE010E94F1028C2F0E94CA04DF91CF917B
:100620000895CF93DF93EC010E941B05CE01805EFD
:100630009109089720F064EF77E0209711F465E7BF
:1006400075E0CE010E94F102DF91CF91089581E023
:10065000089581E008950E942903089508950E9455
:100660002E030895A5E0B0E0E8E3F3E00C94003336
:1006700049835A833091AD0189819A81311119C022
:10068000662399F0222389F00E944A09182F682FC7
:1006900089819A810E94260969817A81812F0E942D
:1006A000AC1D2596E3E00C941C330E943809182FEA
:1006B000F3CF0E944A0969817A81F1CFFC01262F8C
:1006C00086819781009739F44081518162817381DD
:1006D00084810E9432030895CF93DF93EC0161E09F
:1006E0000E945E03BE010E946921DF91CF910895AF
:1006F000CF93DF93EC0160E00E945E03BE010E9495
:100700002F03DF91CF910895E1E0F0E0DF0102C017
:10071000AA0FBB1F6A95E2F7BD01DF0102C0AA0F55
:10072000BB1F4A95E2F76A2B01C0EE0F2A95EAF744
:10073000962F9823961302C08E2B0895E0958E2352
:100740000895242F462F682F8091BA010E948403B8
:100750000E94860808950E94351208950E94391259
:10076000089508950E9411080E94B1032FEF84E3B9
:100770009CE0215080409040E1F700C000000895C7
:100780000E94B2030E942D2B08950E94B2030E9482
:100790003E2B08950F931F93CF93DF93EC018B01B2
:1007A0000E943528B801CE010E949F16811106C013
:1007B00080E0DF91CF911F910F910895B801CE0194
:1007C0000E94B41B8823A1F3B801CE010E942B0321
:1007D000882371F3B801CE010E948625882341F356
:1007E000B801CE010E945628882311F3B801CE012A
:1007F0000E94A4278823E1F2B801CE010E9441247F
:100800008823B1F2F8018281882361F0CA35FDE5C1
:10081000DF0701F158F4C115ECE5DE0791F0CE3D9C
:10082000DC4591F0C8010E942703C3CFCC358DE58C
:10083000D80769F090F0C73ADD45A1F70E94C503DB
:10084000B7CF0E94C003B4CF0E943C0FF7CF0E94E5
:10085000760EE8CF0E94800EE5CF0E94840EE2CF94
:10086000CF93DF93EC0161E00E945E03BE010E9422
:10087000CA03DF91CF9108950E94422A0E94590431
:1008800008950E945D040E94472A089508950E94D9
:100890004604089581E008950E944A040895089549
:1008A000CF93C82F0E9447048C2F0E944C04CF91F5
:1008B000089580E00E94500408950E94F3280E9449
:1008C00050040895CF930E94F328C82F8091A80167
:1008D0008C1779F0C093A8010E94D22A6093A901D5
:1008E0007093AA018093AB019093AC018C2F0E946E
:1008F0005004CF910895ADE0B0E0E1E8F4E00C944D
:10090000013349875A876B877C878D8761110E94E5
:10091000750D1D821E821F82188685E0FE013996A4
:10092000DE01119601900D928A95E1F7809178048D
:1009300082FF0CC00E94350D882319F082E00E94CE
:10094000450E0E941C0D81110E94AF0D8C819D816E
:10095000892B71F429813A814B815C816D817E8183
:100960008F8198850E946B0C2D96E2E00C941D33CC
:1009700089819A8189238F3F69F3CE0101960E9474
:100980006C038111E7CFF0CFFC01808191810E943F
:1009900077090895CF93C82F8823E1F08CEF8C0F4F
:1009A000813AD0F48C2F0E948623811113C06C2FC2
:1009B00080910001909101010E946829882329F00B
:1009C0008C2F0E940A0D0E94BD0D8C2F0E94020DDB
:1009D0000E94BD0DCF91089580E28C0F883048F4BD
:1009E000C77081E001C0880FCA95EAF70E94550DD3
:1009F000EFCFEBE5EC0FE33040F4F0E0EB5AFE4FC5
:100A0000808190E00E942829E5CFE8E5EC0FE731EE
:100A100050F4F0E0EE0FFF1FE95DFE4F8081918101
:100A20000E943E29D7CFC03FA8F28C2F0E941514F8
:100A30000E940015CFCF882379F19CEF980F913A4F
:100A400028F40E940A0D0E94BD0D089590E2980FAF
:100A5000983050F4877091E001C0990F8A95EAF7B9
:100A6000892F0E945B0DEFCF9BE5980F933028F400
:100A700090E080E00E942829089598E5980F97312A
:100A800028F490E080E00E943E290895803F20F005
:100A90000E947D140E94001508951F93CF93DF9349
:100AA000182FEB010E94CA04209739F4812F0E946D
:100AB0001B05DF91CF911F9108958FE99FE001976A
:100AC000F1F700C000002197EFCF70E060E08933BC
:100AD00011F460E570E00E944D050895882321F02F
:100AE0000E94550D0E94BD0D0895882321F00E949B
:100AF0005B0D0E94BD0D0895B0E0A0E0E2E8F5E0D6
:100B00000C94FA326C01D62FC72FFC010281F580BC
:100B1000F2949FE0F9220E944B0DE82E8823B9F051
:100B2000E02E0023A1F08C2F807F803421F080E222
:100B30008D0F8830D0F08091780482FF16C082E05B
:100B40000E94450E0E944B0D91E0E82EE926BC2E36
:100B5000B2948FE0B822FBE0FB1508F468C0EB2DDF
:100B6000F0E0E254FC4C0C94E432E12CF0CF1C2F6A
:100B70001F70C07F11F01295107F002399F0112390
:100B800059F080E28D0F883010F0D11107C0812F0D
:100B90000E94550D0E94BD0D8D2F41C0812F0E94D6
:100BA000680DF8CF8D2F0E941B05112309F43FC05B
:100BB00080E28D0F883010F0D11104C0812F0E9487
:100BC0005B0D03C0812F0E946E0D0E94BD0D2FC0D2
:100BD0001C2F1F70C07FC03211F01295107FDD23D3
:100BE00081F0D13009F482C0002309F48BC0FF20CA
:100BF00009F45BC0F601858180FFCECF8F708583BD
:100C000054C08091780482FD33C0002359F0112331
:100C100029F0812F0E94550D0E94BD0D80E00E9499
:100C2000CA0405C080E00E941B051111C7CFEB2D3F
:100C3000E850FF0B349720F40E94F3280E945004E0
:100C4000EE2089F00E94310D80FD0DC0F601128268
:100C50000E942B0D0E949A08C6010E94C3070E94A1
:100C60002B0D0E94A608CDB7DEB7E9E00C94163331
:100C70000023E9F0F11006C00E94840D812B0E9430
:100C80006E05D5CF21E0F21206C00E94840D812BA3
:100C90000E94980DCCCF35E0F312EECF0E94AF0D3D
:100CA0000E94190D812B0E948B0D812FE8CFF1102E
:100CB00003C00E94AF0D11C081E0F81212C00E9463
:100CC000520D812309F4B3CF0E94AF0D0E94190D7C
:100CD000912F909589230E948B0D812F0E9475057D
:100CE000A6CF95E0F91609F4A2CFE3CF002329F0AF
:100CF000E5E0EF1508F49BCFD8CFF4E0FF1508F43A
:100D000096CFEBCFFF2049F3D93349F4FFEF27EE1D
:100D100033E0F15020403040E1F700C000008D2F5B
:100D20000E941B0584CF8C2F86958695837069F071
:100D3000813009F07CCF8D2F9C2F9370011102C060
:100D400090E080E00E943E2972CF8D2F9C2F9370FF
:100D5000011102C090E080E00E94282968CF8D2F09
:100D6000002329F00E9415140E94001560CF0E94F4
:100D70007D14FACF8C2F837079F5011158CF4D2F48
:100D8000429546954770440F440F8D2F8F70042E67
:100D900001C0880F0A94EAF72D2F2071D4FF07C0F5
:100DA0002FE030E001C0220F4A95EAF72095C69562
:100DB000C695C370822BC23049F058F4C13019F087
:100DC0000E94740834CF0E946E0831CF0E947A08C6
:100DD0002ECF0E946B082BCF8695002311F08C2F0D
:100DE0008170882309F423CF4D2F42954695477093
:100DF000440F440F8D2F8F70042E01C0880F0A946A
:100E0000EAF72D2F2071D4FF07C02FE030E001C09A
:100E1000220F4A95EAF72095C695C695C370822B96
:100E2000C23049F058F4C13019F00E94C508FFCE15
:100E30000E94BF08FCCE0E94CB08F9CE0E94860813
:100E4000F6CECF70002329F08C2F0E949A088D2FA8
:100E500016CF8D2F0E9475058C2F0E94A608E7CE15
:100E6000D23F51F160F4D03FB9F0D13F81F000237F
:100E700009F45AC0F11090CE8C2F8F7121C0D33F4E
:100E800011F1D43FA1F78091780482FD26C08C2F08
:100E90008F71002311F314C0002349F084E08F15F3
:100EA00008F4C5CE8C2F8F710E94B308C0CE95E098
:100EB0009F1508F4BCCEF6CF8C2F8F710111CDCFCA
:100EC0000E949A08B4CE002329F08C2F8F710E94C3
:100ED0009108ADCE0E948D08AACE0023C1F00E94D9
:100EE000310D843041F40E943B0E8C2F8F710E9493
:100EF000A608E12C9CCEE4E0EF15D8F3CF718C2F3F
:100F00000E949A0863E08C2F0E941D0EF2CFF4E03D
:100F1000FF1530F40E943B0E64E08C2F8F71F4CFEC
:100F200081E00E94450EE5CFFF2059F0D93309F04A
:100F3000F6CE2FEF37EE83E0215030408040E1F7CE
:100F4000ECCE8C2F8F7189CF0F931F93CF93DF93AC
:100F5000EC018E819F81009781F00E9421108C010D
:100F60000E94D1080E946A08B801CE010E947C0547
:100F7000DF91CF911F910F910895688179818A81C6
:100F80000E948209ECCFCF93DF93EC018B819C818F
:100F9000892B29F08881998189238F3F51F4DF9132
:100FA000CF910895CE010E94A407CE010E9478033C
:100FB000F6CFCE010E9430048111F4CF0E944B0D78
:100FC000882369F38A81882351F38091780482FF12
:100FD000E6CF82E00E94450EE2CF882321F00E94F6
:100FE000680D0E94BD0D0895882321F00E946E0DAA
:100FF0000E94BD0D089590E080E00E94282990E0B5
:1010000080E00E943E290E94750D0E94BD0D0E9445
:101010001C150E94001508950E94120D0E94FB07E6
:1010200008950E94620D0E940C08089592959F7089
:10103000963091F058F4925F9F70923058F4803F50
:1010400019F030F4883E30F481E008959A5FF4CFCF
:10105000843FD1F380E00895883EB0F3813FD1F71B
:10106000F3CFFC0183819481892B29F080819181C8
:1010700089238F3F39F480E008950E9421100E9457
:1010800016080895868197810097B9F7808191812C
:101090000E947709F4CFA5E0B0E0E1E5F8E00C9418
:1010A00001332596E2E00C941D33A8E0B0E0EBE5B7
:1010B000F8E00C9401332896E2E00C941D33089577
:1010C0000E945F0808950E9460088093BB010E94FF
:1010D000FB07089508950E94630808959091BB014D
:1010E000892B0E94630808959091BB0189230E9477
:1010F000630808959091BB0189270E9463080895B1
:101100000E945F0808950E94800808950E94830845
:101110008093BA010E94FB07089580E00E94860830
:10112000089591E001C0990F8A95EAF7892F0E94EE
:101130008608089521E030E001C0220F8A95EAF781
:101140008091BA01822B0E948608089521E030E048
:1011500001C0220F8A95EAF720958091BA01822377
:101160000E948608089521E030E001C0220F8A9590
:10117000EAF78091BA0182270E948608089590912B
:10118000BA01892B0E94860808959091BA0189239B
:101190000E94860808959091BA0189270E948608C6
:1011A00008950895262F277091E001C0990F2A9580
:1011B000EAF723E0769567952A95E1F7FB01EE0FB4
:1011C000FF1FE60FF71FE40FF51F50E040E0682F08
:1011D00070E08191DF0111979B01042E02C03695CA
:1011E00027950A94E2F7217021952827292328279B
:1011F0002C934F5F5F4F4330510559F70895A82F47
:10120000A77023E0969587952A95E1F7FC01EE0FEC
:10121000FF1FE80FF91FE60FF71F50E040E080E0E6
:10122000219130E00A2E02C0369527950A94E2F704
:1012300021703327042E01C0220F0A94EAF7822B73
:101240004F5F5F4F4330510559F70895262F933074
:1012500070F48A3060F4682F70E08AE0989F600D27
:10126000711D11244EEA51E0822F0E94D208089588
:10127000292F933068F48A3058F490E06EEA71E0D8
:101280003AE0239F800D911D11240E94FF080895CC
:1012900080E00895CF92DF92FF920F931F93CF9338
:1012A000DF936C010091BA018091BB01082BC7E06C
:1012B000D0E010E0FC2EC8010C2E02C09595879559
:1012C0000A94E2F780FD0CC02197A0F7F12C8F2D36
:1012D000DF91CF911F910F91FF90DF90CF900895F4
:1012E000B6018C2F0E941311019771F3F0CFCF93A9
:1012F000DF93EC010E944A09BE010E941311DF91A5
:10130000CF9108951F93CF93DF93EB019091AD019F
:10131000992339F0CB010E947709DF91CF911F917A
:101320000895882369F0CB010E944A09182F682F7D
:10133000CE010E942609BE01812F0E941311EDCF1C
:10134000CB010E943809182FF6CFCF93DF93C091BD
:10135000BC018091BD018C1303C0DF91CF91089532
:10136000D0E0FE0183E0EE0FFF1F8A95E1F7E25423
:10137000FE4F208131814281538164817581868154
:1013800097810E9455082196C770E3CF2091FE01F6
:101390003091FF01409100025091010260910202E0
:1013A0007091030280910402909105020E945508F9
:1013B0000895EF92FF920F931F93CF93DF93809145
:1013C0000302807F31F480910002C091BC01811141
:1013D00017C0CDB7DEB7E6E00C94193320910102B7
:1013E00030910202D0E02115310541F08091FE01DB
:1013F0009091FF01482F49234F3F39F42196C77040
:101400008091BD018C13EACFE4CF8E0143E0000F41
:10141000111F4A95E1F7F801E254FE4F418149134B
:10142000EDCF90819813EACF82818111E7CFE380DD
:10143000F480E21AF30A60E08EEF91E00E945E030E
:101440006EEF71E00E94981BE816F906B8F68091DD
:1014500003028F70806180930302F801ED53FE4F09
:1014600080818F70806180838EEF91E00E94C3073E
:101470000E94A509AECFA5E1B0E0E1E4FAE00C944A
:10148000F5328C0185E0F801DE01519601900D9254
:101490008A95E1F7D8011296FC904EEF842E41E038
:1014A000942E20910102309102022115310541F064
:1014B0008091FE019091FF0189238F3F09F0AFC118
:1014C000F110F6C0C8010E94C30765C090E0FC019E
:1014D00033E0EE0FFF1F3A95E1F7E254FE4F318102
:1014E000371106C03081361103C03281F31211C0AA
:1014F00001968770D5C19F7019F0882309F4E9C15E
:10150000805E883008F4E5C1C8010E94C307ED2C55
:101510000DC1FF2009F40AC180910302816080930C
:101520000302E12C03C1892B49F08091FE019091C7
:10153000FF01282F29232F3F09F0FDC0C8010E9479
:101540003108882309F4BECFFF2009F4BBCF809176
:1015500003028032A0F02091FE013091FF013A8712
:1015600029871B86DD86CC868E8780910402909128
:101570000502988B8F87CE0109960E94C30788E0E9
:10158000F801AEEFB1E001900D928A95E1F70E946B
:10159000D9090E94C609EE24E394C8C0211114C0E1
:1015A0007C2DDD8ACC8AA3016F2D8D890E944B088A
:1015B0008EEF91E00E94C30788E0F40111928A95B2
:1015C000E9F70E94C609ADCF809101029091020215
:1015D000892B49F08091FE019091FF01282F29234A
:1015E0002F3F09F0D1C0C8010E943108882309F4B7
:1015F00069CFFF2009F466CF80910302803208F49E
:10160000BECF2091FE013091FF013A8329831B82D6
:10161000DD82CC828E8380910402909105029887AE
:101620008F83CE010196A9CF60E08EEF91E00E94FA
:101630005E036EEF71E00E94981BA816B90650F584
:10164000EF2CFF2009F43ECF80910102909102021D
:10165000892B49F08091FE019091FF01282F2923C9
:101660002F3F09F0B6C0C8010E943108811187CF11
:1016700080910302816080930302C8010E94C30726
:1016800055C088E0F801AEEFB1E001900D928A9567
:10169000E1F74CC07C2DDD8ACC8AA3016F2D8D89AA
:1016A0000E944B0888E0D4011D928A95E9F769C031
:1016B000C8010E943108E82E882309F403CF88E08E
:1016C000F801AEEFB1E001900D928A95E1F78EEF4F
:1016D00091E00E94C4040E94D90953C081E08F2583
:1016E000D6C0F80121812913C9C0F801908198134F
:1016F000C5C0209104023091050286819781281788
:10170000390709F0BBC0F110B9C0809103028F7096
:101710008061809303020E94C6098EEF91E00E94CF
:10172000C30780910302D80115968C938E2D659680
:10173000EEE00C941133D80111962C912913FECEB2
:10174000D8019C919813FACE2091040230910502A1
:1017500016968D919C9117972817390709F0EECEB0
:10176000F110ECCE8091030215968C93C8010E9473
:10177000C30788E0F801AEEFB1E001900D928A95C1
:10178000E1F70E94C609D2CFF801218129132BCF9E
:10179000D8019C91981327CF209104023091050223
:1017A00016968D919C9117972817390709F01BCF32
:1017B000F11019CF8091030215968C93C8010E94F5
:1017C000C307EEEFF1E088E0DF011D928A95E9F7AB
:1017D000ADCFD80111962C91291345CFF8019081F6
:1017E000981341CF209104023091050286819781A0
:1017F0002817390709F037CF8091030280FD41CFC8
:10180000982F907F09F43DCF8583903F09F4AECFA8
:10181000982F907F905F8F70892B8583A7CFF801D9
:1018200060807180C380D480E09000025601A21ACB
:10183000B30AEE2009F4F8CE60E08EEF91E00E944A
:101840005E036EEF71E00E94981B20910302207FDF
:10185000A816B90608F0A2CE80910102909102026A
:10186000211161CEEF2C892B49F08091FE019091DE
:10187000FF01282F29232F3F09F033CFC114D104B2
:1018800029F0872D86218F3F09F028CF80E0B82FDF
:10189000B170DB2E80FF3DCE8091BC012091BD0157
:1018A000821314CE698A7A8A89899A890E94770973
:1018B000292F22952F70223008F41DCE243008F0F5
:1018C00023CE9F7009F41CCEF8019581907F09F01A
:1018D00017CED12C1CCEA0E1B0E0E1E7FCE00C94E7
:1018E000013329873A874B875C876D877E878F878F
:1018F000988BCE0109960E943B0A8823A9F08C851B
:101900009D85892B39F029853A85822F83238F3F46
:1019100009F06FC08091BC019091BD01891343C053
:101920006096E2E00C941D3388E0FE013996DE01FA
:10193000119601900D928A95E1F78C859D85892BF2
:1019400049F389859A8589238F3F21F3A091BD01B1
:10195000B0E0CD010196877099272091BC0128172E
:10196000190671F40E9411081092BD011092BC0179
:1019700088E0EEEFF1E0DF011D928A95E9F7CACF2A
:1019800093E0AA0FBB1F9A95E1F7A254BE4F98E0CF
:10199000FE01319601900D929A95E1F78093BD0179
:1019A0000E94A509B7CFB8E08B9FC00111248254D3
:1019B0009E4F0E943B0A882309F4B2CFE091BC01FC
:1019C00028E0E29FF0011124E254FE4F2081318192
:1019D0004281538164817581868197810E94550877
:1019E0008091BC0190E00196877099278093BC019B
:1019F00091CF4B855C856D857E858F8598890E940A
:101A0000550888CF682F80910001909101010E94B4
:101A1000E8290895682F80910001909101010E94AA
:101A2000F629089580910001909101010E94042AF5
:101A3000089580912B0208950E94C62A20912902C0
:101A400030912A02821B930B9C0181E0283833419C
:101A500008F480E008958091280285958595859504
:101A6000089580912802877008950E94C62A2091C7
:101A7000260230912702821B930B8838934148F04D
:101A80008091280282FB882780F991E08927817064
:101A9000089580E0FCCF90912802977081E009F4CE
:101AA00080E0089580915002089590915002892B12
:101AB00080935002089580959091500298239093BE
:101AC0005002089510925002089580914F02089597
:101AD00090914F02892B80934F02089580959091A9
:101AE0004F02982390934F02089510924F02089549
:101AF00080934E02089510924E02089580934D02F5
:101B0000089510924D02089580912C020895089531
:101B10000E94870D089590912B02981721F08093D1
:101B20002B020E94880D089508950E94940D089537
:101B3000CF93C82F8091780482FF0FC080912C0230
:101B40008C1759F00E94C62A90932A02809329028A
:101B5000C0932C028C2F0E94950DCF9108958091F7
:101B60002C02882349F010922C0210922A02109223
:101B7000290280E00E94950D0895CF93DF93E091B4
:101B80000001F0910101809150028083E0910001F9
:101B9000F0910101808190914F02892B8083809187
:101BA0002C028823B9F00E941C0D81110E94AF0DF8
:101BB000E0910001F0910101808190912C02892B2C
:101BC000808380910001909101010E94542981112C
:101BD0000E94AF0DE0910001F091010180914D0252
:101BE000982F9095808189238083E0910001F09166
:101BF0000101808190914E02892B8083C091000168
:101C0000D091010140E250E066E072E0CE010E9416
:101C10004533892B59F080E2FE01A6E0B2E0019045
:101C20000D928A95E1F7CE010E940029DF91CF91B4
:101C3000089508950E94190E08959091780492FFD6
:101C400017C098E0899F90011124622B60932802AD
:101C50000E949A080E94C62A909327028093260227
:101C6000809128028595859585950E941A0E089584
:101C70000E949A080895109228021092270210924A
:101C8000260280E00E941A0E089590912802809505
:101C9000892380932802282F277091F4282F082E5B
:101CA000000C330B9217130659F09091780492FFB1
:101CB00007C08595859585950E94A6080E943B0ED4
:101CC00008959091780492FB222720F9281769F053
:101CD00080FB92F990937804809177049091780436
:101CE0000E94B30E82E00E94450E08958091780410
:101CF00082FB882780F991E089270E94610E089570
:101D000081E00E94610E089580E00E94610E0895B6
:101D10006FEF7FEF90E080E00E949E33089590E0A7
:101D200080E00E947A33883E9E4F19F40E943A1652
:101D3000089580E0089582E090E00E947233089553
:101D400083E090E00E9472330895CF9384E090E0A6
:101D50000E947233C82F82E290E00E947233982F63
:101D60008C2FCF910895CF93C92F682F84E090E0F6
:101D70000E9480336C2F82E290E00E948033CF91EA
:101D80000895AB01BC018FE090E00E94923308956A
:101D9000AB01BC0183E190E00E949233089560E0C2
:101DA00070E0CB010E94C80E089560E070E0CB01A6
:101DB0000E94C10E0E94CF0E089568EE7EEF90E063
:101DC00080E00E949E3360E082E090E00E948033D9
:101DD00060E083E090E00E9480331092BB0160E0FD
:101DE00084E090E00E94803364E082E290E00E9410
:101DF000803360E085E090E00E94803360E086E020
:101E000090E00E9480336FEF87E090E00E94803383
:101E100040E050E0BA0188E090E00E94923360E038
:101E20008DE090E00E94803340E050E0BA0188E10C
:101E300090E00E94923360E087E190E00E9480335E
:101E400040E050E0BA018CE190E00E94923370E0F3
:101E500060E080E290E00E949E3340E050E0BA01F2
:101E600088E190E00E94923380E00E9453160E9425
:101E700082160E94D50E08950E94DD0E08950E94DC
:101E8000D22A60935D0270935E0280935F0290930A
:101E900060026093590270935A0280935B029093A0
:101EA0005C020895089508950E94530F08950895BF
:101EB0000E94570F08958DEF91E10E94E9280E943A
:101EC000E0180E94520F0E94540F089581E0089577
:101ED0000E94660F0895089508950E946B0F0E9456
:101EE0006C0F08950E9419120E944F0408950E94D9
:101EF000BD2A0E9492160E94EF120E94720F0E9449
:101F0000580F08950E944A250E94B1280E9422215C
:101F10000895AAE0B0E0EFE8FFE00C94F6320E94EA
:101F20000513009153021091540280E00E943C126C
:101F300008171907E1F5009155021091560281E04A
:101F40000E943C128017910791F500915702109161
:101F5000580282E00E943C120817190741F50E94BE
:101F6000C62A8C01809151029091520208171907DC
:101F7000A1F08FEF89838A831B820E94C62A816029
:101F8000782F9D838C8349815A816B818D810E943A
:101F90007B0410935202009351020E94820F0E9410
:101FA0003E150E9462042A96EDE00C941233809153
:101FB000610281FD0E9445120E94680F782E23E580
:101FC000822E22E0922E10E0812F0E943C127C0192
:101FD000F401A190B1904F018A159B0561F1A826EB
:101FE000BF2400E0CC24C394D12CC5018C219D21B9
:101FF000892BC1F07720B1F00E831F8321E0C70148
:102000008C219D21892B09F420E028870E94C62A73
:102010008160782F9A8789874E815F8168858A855C
:102020000E947B040F5FCC0CDD1C0A30F1F6F4013A
:102030003297F182E0821F5F133031F60E943F0F2A
:10204000ACCFCF93DF930E941811EC01811521E5ED
:10205000920708F042C0811530E5930708F09FC051
:10206000883E910530F5803E910508F094C0883A8D
:10207000910588F4853A910508F086C08130910574
:1020800009F489C0009709F486C0049708F083C05A
:10209000D0E0C0E080C08F3B9105D0F7C85AD0E0B7
:1020A000CC0FDD1FC85ADE4F0990D881C02DD464F3
:1020B00072C0811540E2940750F4C11581E0D80741
:1020C00008F069C0C03FD10518F3D06564C0811520
:1020D0009044F0F2DF70D06A5EC0811535E5930759
:1020E00018F5811544E5940708F086C0C11583E50D
:1020F000D80708F06DC0C11522E5D20708F463C007
:10210000CE018370992721E030E002C0220F331FF7
:102110008A95E2F7C695C69580E2C89FE001112432
:10212000C22BD32BDC6837C0811539E59307A8F49F
:10213000811548E5940708F064C0C11586E5D80705
:1021400008F0A6CF8C2F0E94BA11C82FD0E0DC2F48
:10215000CC27CC27DF71D0621EC081152AE59207FB
:1021600008F454C090568115904208F091CF8D2FFD
:102170008F710E94BA1190E0982F882788279F714D
:102180009C012C2BE901E7CFC55AD0E0CA57DE4F9E
:10219000C881D0E0D064CE01DF91CF910895282F7F
:1021A00026952695237040E2249F90011124837088
:1021B000C1E0D0E002C0CC0FDD1F8A95E2F7C22B50
:1021C000D32BDD68E8CFDC2FCC27C16FD06AE3CFFB
:1021D000CE018370992721E030E002C0220F331F27
:1021E0008A95E2F7C695C69540E2C49FE0011124A6
:1021F000C22BD32BDA68CFCFD82FCC27C46FD06AAD
:10220000CACFD82FCC27C06FD06AC5CF8F700E949D
:10221000BA1134E0D695C7953A95E1F7CF709C2F67
:10222000EC01D069B8CF0E94AC1D0E942110089526
:1022300082389105B9F1B0F48133910509F47DC07C
:1022400048F48932910509F46DC08A32910509F488
:102250007BC008958533910509F45FC089339105EA
:1022600009F10895833E9105D9F138F4803E910536
:1022700029F1823E910579F10895863E9105D9F1C3
:10228000873E910509F43EC0843E910541F52091B9
:10229000780421FF24C08091770484FD19C087EE63
:1022A00090E0089520917704237009F05AC020919E
:1022B000780423FF14C089E290E008952091770408
:1022C00020FD38C03091780430FF09C024FF43C09E
:1022D00090E080E008952091770422FDF7CF0895E3
:1022E0002091770422FD3AC03091780430FD39C046
:1022F00024FFF5CFEDCF2091770423FFF0CF24FD0D
:10230000E7CFCDCF2091770423FD2EC03091780404
:1023100031FFEECF84EE90E008952091770425FF01
:10232000DECFC9CF2091770425FD21C0209178040C
:1023300023FFD5CF89E390E0D2CF2091770426FF09
:10234000CECF8AE290E008952091770426FFC7CF90
:1023500081E390E0089583EE90E0089582EE90E0AE
:10236000089580EE90E0089586EE90E0089585E36C
:1023700090E008959091770492FF06C0282F28716D
:102380002830F9F4877F846093FF06C0282F2871D6
:102390002831F1F4877E84612091780420FF06C003
:1023A000382F38713830D9F4877F816021FF06C01B
:1023B000282F28712831D1F4877E816194FD877E92
:1023C0000895282F24712430F9F68B7F8860DCCFA4
:1023D000282F2471243101F78B7E8861DDCF382FBF
:1023E0003171313019F78E7F8860E0CF282F21714D
:1023F000213121F78E7E8861E1CF80E008950E942F
:10240000880E08950E9405138FE39CE90197F1F768
:1024100000C000000E94051380E00E943C1280FF73
:1024200004C00E94FF110E942D2B08950E940212E9
:1024300008950E948F0E811102C00E943C0F0E94DD
:102440009B0E809361020E94A50E90937804809366
:1024500077040E9416120E94A00E0E946B088091C1
:10246000BA010E948308089508950E9434120895C5
:1024700008950E9438120895E82FF0E0EE0FFF1F34
:10248000E158FB4F808191810895089580EA8A95F3
:10249000F1F7089500C008950E9446120895F89437
:1024A000E82FE295EF70F0E031A1282F2F7081E046
:1024B00090E001C0880F2A95EAF7982F9095932312
:1024C00091A392A1892B82A378940895CF93DF934F
:1024D00086EF0E944F1287EF0E944F1281E30E9405
:1024E0004F12C9E8D1E089918F3F11F00E944F123D
:1024F00081E0C339D807B9F7DF91CF910895AF9242
:10250000BF92DF92EF92FF920F931F93CF93DF93CF
:102510008C01D62EC62FD0E0CE018D569E4F7C0169
:10252000FC0120812F3F09F44DC0F894E22FE29581
:10253000EF70F0E031A12F7081E090E001C0880FD2
:102540002A95EAF7932F982B91A392A1809589233E
:1025500082A378940E944A12E9E8F1E043E951E04D
:1025600021E030E0B12CA12C61916F3FA9F1A62FA1
:10257000A295AF70B0E090968C9190E06F7002C021
:10258000959587956A95E2F780FD26C0C901A82A2E
:10259000B92A220F331F4E175F0731F7F7018081E9
:1025A0008F3F11F00E944F1261E0A114B10409F4B1
:1025B00060E08D2D0E944C12CC0FDD1FC00FD11F8B
:1025C000B982A882DF91CF911F910F91FF90EF9078
:1025D000DF90BF90AF90089590E080E0D8CF0E9448
:1025E000661286E0EFE7F4E0DF01982F1D929A95DE
:1025F000E9F7E9E7F4E0DF011D928A95E9F783E066
:102600000E9443130E94AB030895A6E0B0E0EBE004
:10261000F3E10C94FF328E010F5F1F4F86E0F8014B
:1026200011928A95E9F760E0C8010E947F1261E08B
:10263000C8010E947F1262E0C8010E947F1246E03A
:1026400050E0B80189E794E00E94453321E000970B
:1026500009F420E0892B41F086E0F801A9E7B4E015
:1026600001900D928A95E1F743E06FE774E089E706
:1026700094E00E944413182F0E94AE03812F2696E7
:10268000E4E00C941B330895CF92DF92EF92FF9217
:102690001F93CF93DF936C017B01C42F222349F05A
:1026A00081E0809364020E94C62A90936302809323
:1026B00062021091640211110AC010E0812FDF91B3
:1026C000CF911F91FF90EF90DF90CF900895809170
:1026D0006202909163020E94DE2A059770F3D0E0B7
:1026E000CC0FDD1FAE01B601C7010E944533892B17
:1026F00041F0AE01B601C7010E945233109264024C
:10270000DDCF10E0FBCF0E94292D0E94770F0E94A1
:10271000362D08950E943B2D0E94890F0E94552D51
:1027200008950E945F2A0E940F2D0E945B0F0E9455
:1027300083130E948A130E946D0FFBCF80916B025E
:1027400080FF0DC06091070170E0660F771F603851
:10275000710570F56115710569F1862F089581FF86
:1027600007C06091070184E0689FB0011124EFCF9A
:102770006091070182FD0AC080916A028823A9F056
:102780002091060160910701821710F088E0ECCFDC
:10279000869FC001112433E0880F991F3A95E1F715
:1027A000622F70E00E94D032D2CF68E070E0D5CFC7
:1027B0008FE7089581E0089580916B0280FF0CC03F
:1027C0006091030170E07595679575956795611542
:1027D000710549F1862F089581FF06C060910301BC
:1027E00070E075956795F3CF6091030182FD0BC092
:1027F000909169029923A1F06091020180910301F7
:10280000961738F0682F70E06038710500F38FE795
:102810000895899FC001112470E00E94D032F4CF46
:1028200061E070E0D7CF81E00895803F31F40E94ED
:102830009E13819580936F020895813F19F40E9441
:102840009E13F8CF823F31F40E949E1381958093AE
:102850006E020895833F19F40E949E13F8CF893FBA
:1028600029F40E94DC138093700208958A3F21F4BA
:102870000E94DC138195F7CF8B3F31F40E94DC136B
:1028800081958093710208958C3F19F40E94DC13A6
:10289000F8CF843F31F480916D02816080936D02A6
:1028A0000895853F21F480916D028260F7CF863FC5
:1028B00021F480916D028460F1CF873F21F48091F3
:1028C0006D028860EBCF883F21F480916D028061BA
:1028D000E5CF8D3F31F480916B02816080936B0274
:1028E00008958E3F21F480916B028260F7CF8F3F75
:1028F000B9F780916B028460F1CF90916E02803FB6
:1029000059F480916F0287FF0DC010926F029111F0
:102910000BC010926A0208C0813F81F480916F025F
:1029200018169CF3992381F08091700290917102A6
:10293000892B09F064C0109269020895823F49F41E
:1029400097FFF0CF10926E0280916F028111ECCF51
:10295000E0CF833F19F41916ACF3E4CF2091700255
:10296000893F29F41216F4F610927002DBCF8A3FE9
:1029700019F427FFD7CFF8CF209171028B3F29F4AC
:1029800027FFD0CF10927102CDCF8C3F19F41216D1
:10299000CCF3C8CF843F31F480916D028E7F809359
:1029A0006D02C0CF853F21F480916D028D7FF7CFFE
:1029B000863F21F480916D028B7FF1CF873F21F418
:1029C00080916D02877FEBCF883F21F480916D026B
:1029D0008F7EE5CF8D3F31F480916B028E7F8093A7
:1029E0006B02A0CF8E3F21F480916B028D7FF7CFD9
:1029F0008F3F09F097CF80916B028B7FF0CF0895C6
:102A00000E94C62A9C0190916E0280916F02982BC1
:102A100021F03093680220936702909170028091B8
:102A20007102982B21F030936602209365028CE6A8
:102A300092E00E941A29089586E0ECE6F2E0DF01B8
:102A40001D928A95E9F710926A021092690210921B
:102A50006B020895FC01828181110EC08381811176
:102A60000BC08481811108C091E08581811101C072
:102A700090E0892F8170089581E0FCCFA6E0B0E05E
:102A8000E4E4F5E10C94003386E0ECE6F2E0DE01EC
:102A9000119601900D928A95E1F710926E021092B4
:102AA0006F0210927002109271028B819C81892BAF
:102AB00089F080916702909168020E94DE2AAC0141
:102AC00090916A029923C9F1809108018417150633
:102AD00008F440C08D819E81892B91F08091650220
:102AE000909166020E94DE2AAC01909169029923BE
:102AF00009F471C0809104018417150608F479C0A7
:102B0000BE016F5F7F4F8CE692E00E94162A811112
:102B100005C08CE692E00E942A1581110E940015E2
:102B200086E0FE013196ACE6B2E001900D928A9506
:102B3000E1F72696E3E00C941C33209109018AE02A
:102B4000289F900111242417350720F69F5F90934A
:102B50006A0202C09F3FD1F71B81112359F00E94E6
:102B60009E139FEF11160CF491E0899F802D112484
:102B700080936E021C81112359F00E949E139FEFD7
:102B800011160CF491E0899F802D112480936F021F
:102B900030916E02332309F49DCF20916F022223DE
:102BA00009F498CF45EB3403C0011124992359F05F
:102BB00090936E0245EB240390011124332339F0E6
:102BC00030936F0287CF81E080936E02F3CF81E074
:102BD00080936F027FCF209105018AE0289F9001AA
:102BE00011242417350708F08BCF9F5F909369025B
:102BF00002C09F3FD1F71D81112359F00E94DC13C1
:102C00009FEF11160CF491E0899F802D1124809381
:102C100070021E81112359F00E94DC139FEF1116E0
:102C20000CF491E0899F802D1124809371023091E2
:102C30007002332309F464CF20917102222309F436
:102C40005FCF45EB3403C0011124992359F09093D1
:102C5000700245EB240390011124332339F03093A3
:102C600071024ECF81E080937002F3CF81E08093B8
:102C7000710246CF83E290E00E947233883389F478
:102C800084E290E00E947233873259F485E290E04A
:102C90000E94723391E0803B09F090E0892F8170AF
:102CA000089580E0FCCFCF93C82F6FEF811168E3C8
:102CB00083E290E00E9480336FEFC11167E284E20B
:102CC00090E00E9480336FEFC11160EB85E290E0ED
:102CD0000E948033CF910895089586E290E00E948B
:102CE0007233682F70E090E080E008950895CF93EC
:102CF000C62F0E9476166C2F86E290E00E948033E9
:102D0000CF91089580E00E94531660E070E0CB01FF
:102D10000E9477160E94CF1C0E94181E81E00E941C
:102D2000531608950E946C160E946D160E94761626
:102D30000E943A16811102C00E9482160895CF9314
:102D4000FB01C281CC2309F19C0122513F45203176
:102D5000310520F582510E94281EC0E08C2FCF91B2
:102D6000089581E00E949A0843E062E081E00E94B9
:102D7000A103F3CF81E00E94A60843E062E081E076
:102D80000E94A103EBCF82E0F6CF8031FFE59F07E1
:102D900089F381319F45B9F3C1E0E0CF8031EFE5A0
:102DA0009E07F9F281319F45C9F682E0DBCF2FEF14
:102DB000FC0120830895EF92FF920F931F93CF930E
:102DC000DF93EC01062F88812091B9033091BA037B
:102DD000232B79F08E3F09F057C08981833020F092
:102DE0008550833008F050C0602FCE010E94E71854
:102DF0004BC08C3009F4A0C0D0F4843009F483C0F7
:102E000060F4823009F449C008F070C08130C9F123
:102E1000602FCE010E94D71637C0863009F489C0D2
:102E200008F47CC08A30A0F78FEF88832DC08031F2
:102E300009F49FC0D8F48E3009F48AC008F480C029
:102E400080910C0190910D01892BF1F06B8170E064
:102E50006D317105C8F489819A81AE014C5F5F4F75
:102E60009827892798270E94F31D0EC0823109F404
:102E700086C008F481C0833109F492C08E3F41F6C8
:102E8000B3CF198289E08A83602FCE010E94E22BA2
:102E9000CDB7DEB7E6E00C9419338981823071F04A
:102EA000833079F0813009F0B3CF0E94D22A0E949A
:102EB000EA326A837B838C839D83E6CF0E946D1602
:102EC000F6CF80910C0190910D01892BE9F27E01E2
:102ED00010E0812F0E943C12F701928383831F5FD1
:102EE000F2E0EF0EF11C1330A1F7CECF89818230D2
:102EF00009F08ECF6A817B818C819D810E94EA32AC
:102F00000E947716C1CF4B816A8189810E94191C6A
:102F10009827892798279D838C83B6CF2C813D8164
:102F20003227232732274B816A8189810E943B1CEB
:102F3000ABCF0E94CF1CA8CF0E94C91D8983A4CF0C
:102F40000E94CB1D9827892798279A8389839CCF35
:102F50006B8170E06D31710508F096CF89819A819F
:102F6000AE014C5F5F4F9827892798270E94CE1D9E
:102F70008BCF0E94181E88CF0E94071CDFCF6B8169
:102F800070E06D31710508F07FCF89819A81AE01C3
:102F90004C5F5F4F9827892798270E945A1D74CF4E
:102FA0006B8170E06D31710508F06ECF89819A8177
:102FB000AE014C5F5F4F9827892798270E947E1D9E
:102FC00063CF81152CE5920741F420910C013091DB
:102FD0000D01232B11F490E080E00895E5E3F3E088
:102FE00090E080E061E77BE14DEF5AE124EA3AE1CD
:102FF00077836683518740873387228795878487C5
:1030000001963E968830910599F70895CF92DF9208
:10301000EF92FF921F93CF93DF93CDB7DEB72A973E
:103020000FB6F894DEBF0FBECDBFE5E8F4E080E553
:10303000DF011D928A95E9F7EDEFF2E088E3DF0109
:103040001D928A95E9F785E8C82E84E0D82E7F0185
:1030500010E0F701D182C082BE016F5F7F4F812FE8
:103060000E947F1C892B79F488E0FE013196D601FD
:1030700001900D928A95E1F789859A85D70113967B
:103080009C938E931297BAE0CB0ED11CE7E0EE0E24
:10309000F11C1F5F1830E9F62A960FB6F894DEBFD0
:1030A0000FBECDBFDF91CF911F91FF90EF90DF90CA
:1030B000CF900895AAE0B0E0E0E6F8E10C94F83291
:1030C00004E812E082E7C82E82E0D82EF12C97E0C7
:1030D000E92E992493942CEFA22E22E0B22ED60151
:1030E0000D931D936D01BE016F5F7F4F8F2D0E9469
:1030F000A71C892B09F056C0F8013896DF018E2DE8
:103100001D928A95E9F789819A81D80111969C933D
:103110008E938F8112968C9312978D8113968C9338
:103120001397888514968C931497898515968C939C
:1031300015978B819C8117969C938E931697189662
:103140001C9218978A8587FF37C01E961C921E9284
:103150001D9780FF03C0D80118969C9281FF04C080
:10316000F80190859260908782FF07C0D801189679
:103170009C911897946018969C9383FF04C0F80163
:1031800090859860908784FF07C0D80118969C911D
:103190001897906118969C9385FF04C0F80180856C
:1031A00080628087015F1F4FF394F8E0FF1297CF92
:1031B0002A96EBE00C941433F801B686A586C9CFA5
:1031C0000E94EE170E9406180E945A180895CF9286
:1031D000DF92FF920F931F93CF93DF93CDB7DEB7AC
:1031E0002A970FB6F894DEBF0FBECDBF8C016032B8
:1031F00069F5DC011196EC911197EE3038F5F0E0AD
:10320000E653FC4C0C94E43288E0EFE1F1E0DE019F
:10321000119601900D928A95E1F780E2F8011192E2
:103220008A95E9F785E0D8018C9311961C92119745
:1032300012961C92129713961C92139788E0FE0127
:103240003196149601900D928A95E1F72A960FB661
:10325000F894DEBF0FBECDBFDF91CF911F910F91CC
:10326000FF90DF90CF9008958CEEF801808311825B
:1032700012821382EBCF13968C911397682F70E014
:10328000762F662712968C91860F972F911D092E07
:10329000000CAA0BBB0B55E0880F991FAA1FBB1F80
:1032A0005A95D1F7AC01BD01405E5F4F6F4F7F4F24
:1032B000481759076A077B0748F28C3E9105A1051C
:1032C000B10520F64D3E51056105710520F04CEE2B
:1032D00050E060E070E0481B590BBC0168527E4F23
:1032E000C8010E943C33B2CF40E250E06FEF70E083
:1032F0000E945B3380910C01F80180838091B903B7
:103300008183A4CF81E090E09093BA038093B903C6
:1033100082E390E09093B8038093B7030E94C62A9B
:1033200095CF80910C018C938091B90311968C9369
:1033300011978091B70312968C9388CF40E250E0AA
:103340006FEF70E00E945B3381CF1296EC91129781
:10335000E73008F07BCFF0E0E852FC4C0C94E4320C
:1033600080E2F80111928A95E9F788E08C93119632
:103370008C931197E0CFFC0183813AE0F32E9E01FC
:103380002F5F3F4F6901D901EF2D1D92EA95E9F7B3
:10339000B9010E94571CD8018D93F60101900D923E
:1033A000FA94E1F753CF1396FC908AE0F801349633
:1033B000DE01119601900D928A95E1F789819A813B
:1033C0000E94E1179A8389838B819C810E94E11777
:1033D0009C838B838D819E810E94E1179E838D83C8
:1033E0008F8198850E94E11798878F83BE016F5F58
:1033F0007F4F8F2D0E946B1CF80180830E94EE1777
:1034000025CF13968C912AE0F22EFE0131966F01A2
:10341000DF01EF2D1D92EA95E9F7B6010E947F1CAE
:10342000BACF1396FC908AE0F8013496DE0111962B
:1034300001900D928A95E1F789859A850E94E1179E
:103440009A878987BE016F5F7F4F8F2D0E94931CE3
:10345000F80180830E940618F9CE13968C919AE0A9
:10346000F92EFE0131966F01DF01EF2D1D92EA95D5
:10347000E9F7B6010E94A71C8ECF1396FC908AE054
:10348000F8013496DE01119601900D928A95E1F7CC
:103490008B819C810E94E1179C838B83BE016F5FAF
:1034A0007F4F8F2D0E94BB1CF80180830E945A1809
:1034B000CDCEA5E0B0E0EFE5FAE10C9401339093B6
:1034C000D6048093D504811520E2920730F40E943F
:1034D000FB022596E2E00C941D3380EF89838A83FA
:1034E00081E08B830E94C62A8160782F9D838C8324
:1034F00049815A816B818D810E947B04EACFA5E0CE
:10350000B0E0E5E8FAE10C9401339093D60480939F
:10351000D504811520E2920730F40E94110325960C
:10352000E2E00C941D3380EF89838A831B820E9422
:10353000C62A8160782F9D838C8349815A816B8153
:103540008D810E947B04EBCF0F931F93CF93DF936A
:103550008C01EB0165EA73E08C2F0E94571C892BCC
:1035600071F4DD27C155DC4F8881F8011282188281
:103570008330F1F048F4813059F0823081F0DF91EE
:10358000CF911F910F9108958430B9F08530B9F72C
:103590008091A5039091A603009789F306C08091BE
:1035A000A7039091A803009799F30E947F1AE7CF91
:1035B0008091A9039091AA03F6CF8091AB039091DB
:1035C000AC03009791F72091A5033091A603809159
:1035D000A7039091A80321153105F1F2009729F76F
:1035E000C901E3CFCF93DF93EC010E94591ACE01BA
:1035F0000E947F1ADF91CF9108950F931F93CF936D
:10360000DF938C01EB0165EA73E08C2F0E94571C5D
:10361000892B09F05CC0FE01FF27D80112968C911E
:103620001297E155FC4F8130B9F415969C9192FFA9
:1036300002C080830AC090FFFCCF82E0808380912B
:10364000A7039091A8030097B9F48091A5039091E6
:10365000A6030097E1F110C08230B9F515968C9160
:1036600082FD28C080FD0BC083E080838091A90388
:103670009091AA03009701F10E94591A28C084E092
:1036800080838091AB039091AC030097A9F7809160
:10369000A5039091A6030097F9F00E94F21A809179
:1036A000A7039091A803009739F78091A503909103
:1036B000A603E2CF85E080838091A5039091A603C5
:1036C000009729F00E94F21AF0CF86E08083DF9104
:1036D000CF911F910F9108958091A7039091A80316
:1036E000B8CF0F931F93CF93DF938C01862F65EA9A
:1036F00073E00E94571C892BB1F4C091A503D091AF
:10370000A603209781F0F8018281833051F4CE0125
:103710000E94F21ACE010E94F21ACE010E94F21A01
:1037200002C08430D0F7DF91CF911F910F9108959F
:10373000AAE0B0E0EEE9FBE10C9401339C013755BF
:103740002F3F310509F068F4BE016F5F7F4F0E9483
:10375000571C892B31F489859A852A96E2E00C94CE
:103760001D3388EC90E0F9CFCF93DF93FB012281EA
:10377000211130C0EC01D755CF3FD10509F050F5EC
:1037800065EA73E08C2F0E94571C892B19F58EE097
:103790008C9FF0018D9FF00D1124EB5CFC4F82811A
:1037A0008130E1F48091A5039091A603892B91F0DB
:1037B0008091A7039091A803892B61F08091A903C0
:1037C0009091AA032091AB033091AC03822B932BF1
:1037D000892B61F081E0DF91CF9108958230D1F79C
:1037E0008091A9039091AA03892BA1F32EE02C9F2D
:1037F000C0012D9F900D1124FC01E65CFC4F20813F
:103800002E7F20838B5C9C4F0E941028E3CF86E0A4
:10381000089550E0440F551F94E1699F400D511DDC
:1038200011249CE3899F400D511D1124CA018796E4
:1038300008950F931F93CF93DF938630C8F46330BE
:10384000B8F44A30A8F40E94091C8C010E9472331B
:10385000C82FD0E0DC2FCC27C80101960E9472331C
:103860009E01282BC901DF91CF911F910F910895DF
:1038700090E080E0F8CF0F931F93CF93DF93122F48
:10388000032F863078F4633068F44A3058F40E948D
:10389000091CEC01602F0E948033612FCE0101963C
:1038A0000E948033DF91CF911F910F9108959B016A
:1038B000883070F49AE0899FB001112461577E4FDF
:1038C0004AE050E0C9010E94623390E080E0089530
:1038D0008FEF9FEF08959B01883070F49AE0899FE5
:1038E000B001112461577E4F4AE050E0C9010E94A7
:1038F000A43390E080E008958FEF9FEF08959B013F
:10390000883070F49AE0899FB001112461527E4F93
:103910004AE050E0C9010E94623390E080E00895DF
:103920008FEF9FEF08959B01883070F49AE0899F94
:10393000B001112461527E4F4AE050E0C9010E945B
:10394000A43390E080E008958FEF9FEF08959B01EE
:10395000883070F49AE0899FB0011124615D7D4F39
:103960004AE050E0C9010E94623390E080E008958F
:103970008FEF9FEF08959B01883070F49AE0899F44
:10398000B0011124615D7D4F4AE050E0C9010E9401
:10399000A43390E080E008958FEF9FEF0895AEE1AB
:1039A000B0E0E5EDFCE10C94F63280900C019090D3
:1039B0000D0181E090E090930D0180930C019CEA51
:1039C000A92E90E0B92E10E000E06501712C22C014
:1039D0000E94BE0221E030E08017110641F03CF069
:1039E000F701EE0FFF1FEC0DFD1D259134914E2DBB
:1039F000672D802F0E943B1C8FEFE81AF80A9AE08F
:103A0000E916F10429F7E4E1CE0ED11C7394F3E03A
:103A10007F1619F0F12CE12CDBCF0F5F1F4F8CE3E9
:103A2000A80EB11C0630110581F61E8A1D8A188E5B
:103A30001F8A1A8E198E1C8E1B8E88EC90E09E8F2A
:103A40008D8F10E0BE016B5E7F4F812F0E946B1C3B
:103A50001F5F1830B9F77E019BE0E90EF11C8AE088
:103A6000F70111928A95E9F710E0B701812F0E94C2
:103A7000931C1F5F1830C9F7CE0101967C018AE0C4
:103A8000F70111928A95E9F78FEF9FEF9E838D835F
:103A900087E08A8710E0B701812F0E94BB1C1F5F5F
:103AA0001830C9F790920D0180920C016E96EDE0EE
:103AB0000C941233EF92FF920F931F93CF93DF93E7
:103AC000EC018A017C01E60EF71ECE018796CE1529
:103AD000DF0529F4CDB7DEB7E6E00C941933C8361C
:103AE00021E0D20740F40E947233F80180830F5F17
:103AF0001F4F2196EACFF8011082F9CFB0E0A0E085
:103B0000E4E8FDE10C94FB328C016A0188369140B7
:103B100080F488E691E0801B910B8617970748F0A8
:103B20007801E60EF71EE801CE018796CE15DF0577
:103B300029F4CDB7DEB7E8E00C941733C83621E09E
:103B4000D20740F4FE01E01BF10BEC0DFD1D60817E
:103B50000E9480332196E8CF462F2091B9033091FF
:103B6000BA03232B99F4703F39F4603F79F48091C4
:103B7000D5049091D6040895863040F4733030F423
:103B80006A3020F4672F0E94191C089590E080E0AD
:103B9000089580E1089581E891E00895EF92FF9201
:103BA0000F931F93CF93DF93EC018A017C01E60E04
:103BB000F71ECE0181589D4FCE15DF0529F4CDB7F4
:103BC000DEB7E6E00C941933C13821E0D20740F4A7
:103BD0000E947233F80180830F5F1F4F2196E9CF57
:103BE000F8011082F9CFB0E0A0E0E9EFFDE10C941C
:103BF000FB327C016A018C01060F171FEC01CE011C
:103C000081589D4FC017D10729F4CDB7DEB7E8E042
:103C10000C941733C13821E0D20740F4FE01EE19AD
:103C2000FF09EC0DFD1D60810E9480332196E7CFD6
:103C3000CF93DF93CFE7D2E060E0CE010E948033E4
:103C40002196C11584E0D807B9F7DF91CF91089587
:103C5000A4E0B0E0EEE2FEE10C94FA32F82E2FE0A0
:103C6000281708F4A5C08FEF93E00E9472338111EA
:103C70009FC00FE712E0F11036C019821A821B8232
:103C80001C82BB24BA9478015FEFE51AF50AC801DB
:103C90000E94723389831A82882309F489C0813093
:103CA00009F07FC0680182E0C80ED11CC7010E94E4
:103CB0007233E82E8A83882309F47AC0C6010E94F1
:103CC0007233F82E8FEF8E0D8330D8F46801E3E065
:103CD000CE0ED11CFB82FF2021F0CE0101960E9466
:103CE0009F1F8601D0CF011544E0140709F460C07E
:103CF000C8010E947233811101C0FA940F5F1F4FF7
:103D0000BACF8BEF8E0D833030F5C8010396FB825E
:103D10006C01FF2031F36801F4E0CF0ED11C0E944A
:103D200072338C838823E9F28B819C8181302FEF61
:103D3000920710F0982F882746E0E41631F057E0FC
:103D4000E51631F00E94F21ACCCF0E94591AC9CF61
:103D50000E947F1AC6CF84E0E812C3CF6801E4E076
:103D6000CE0ED11CC80103960E947233FF2001F1D0
:103D70008823F1F08150990BB89E9001B99E300DC7
:103D800011244F2D4150550BCA01820F931F0197EB
:103D900008F4A7CFEFE9FFE03197F1F700C000008A
:103DA000F6CF60E0CE0101960E94391F670199CFDE
:103DB0002496E9E00C941633B0E0A0E0E2EEFEE1D8
:103DC0000C94FC32E82FF0E0EC53FD4FD490282FF8
:103DD00026952695269530E0F901EC59FC4F049183
:103DE000877010E0082E02C0159507950A94E2F737
:103DF00001701127F901EC5AFC4FE490F12C082EC8
:103E000002C0F594E7940A94E2F791E0E922FF24D6
:103E1000F901EC5BFC4FC491D0E002C0D595C79589
:103E20008A95E2F7C170DD270115110519F081EEC1
:103E30000E94CA04E114F10419F086EE0E94CA043B
:103E40008D2D0E946505E114F10419F086EE0E94A3
:103E50001B050115110519F081EE0E941B05CD2BE4
:103E600019F08CE20E946505CDB7DEB7E7E00C944F
:103E70001833EF92FF920F931F93CF93DF93EC01D0
:103E8000162F0AE08881882309F454C0813009F094
:103E90004EC08981813099F47E0122E0E20EF11C4E
:103EA0008A810E946505E7012196812F815050F398
:103EB000EFE9FFE03197F1F700C00000F7CF823063
:103EC00041F47E0182E0E80EF11C8A810E94CA045E
:103ED000EACF833041F47E01E2E0EE0EF11C8A81EC
:103EE0000E941B05E0CF843011F02196DDCF2A819E
:103EF000229690E080E0AE014F5F5F4F2053330B7E
:103F00002A30310548F0019778F2EFE9FFE0319768
:103F1000F1F700C00000F7CF089FB001099F700DB6
:103F20001124C901860F971F2981EA01E4CF0E945D
:103F3000DC1EBACFCDB7DEB7E6E00C94193360E0F3
:103F40000E94391F089508950F931F93CF93DF9315
:103F500080912604E091BB031CE081111AC0DF911F
:103F6000CF911F910F91089501E00E0F0093BB03B5
:103F7000CE2FD0E0E19FF0011124EA53FC4F838162
:103F80009481892B29F08081918189238F3FF9F4D5
:103F9000E02F80912604E81738F31092260410923F
:103FA000BB03DDCF18968D919C918F3F9807E1F070
:103FB00061E00E94A31F1C9FF0011D9FF00D1124C2
:103FC000EA53FC4F148213820E94750DE1CF1C9FAF
:103FD000D0011D9FB00D1124AA53BC4F16968D9190
:103FE0009C911797892BF1F2208131814281538175
:103FF00064817581868197810E946B0CDCCF109261
:1040000028041092270420910F0130911001EDEF48
:10401000F2E090E080E02817390709F4089545811F
:10402000411102C01482168201963796F4CFDC014A
:104030006091C4038091C503962F891301C0089530
:10404000292F30E0F901EE0FFF1FE454FC4F4081AF
:1040500051814A175B07A1F487E08A9FA0018B9FDB
:10406000500D112443505D4F81E0FA018483961373
:10407000E6CF2F5F3F4F237033272093C40308956B
:104080002F5F3F4F922F9370D8CF6F927F929F9266
:10409000AF92BF92CF92DF92EF92FF920F931F9356
:1040A000CF93DF93DB0114962C911497211156C006
:1040B000A0902604E6ECF3E030E020E0B12C66248A
:1040C0006394712C2A1508F047C0C284D384ED9004
:1040D000FC9011976FEF7FEF912C492D50E08A01F2
:1040E000000F111F0E0D1F1DE80108811981011518
:1040F000110531F0C016D10609F4BA019394EDCF41
:104100006F3F7607D9F1E30102C0CC0FDD1F6A953E
:10411000E2F7BC2AB30102C0660F771F9A94E2F758
:10412000AB0141505109B416150631F512964D9167
:104130005C9113976CE0629FF001639FF00D112476
:10414000EA53FC4F578346832EEF208321839187C8
:10415000808721E015962C930E941720DF91CF9144
:104160001F910F91FF90EF90DF90CF90BF90AF9095
:104170009F907F906F900895148213822F5F3F4F1E
:104180003C96A0CF1F93CF93DF93C091C40317E059
:104190008091C5038C1308C00E94A41F0E94FF1FBA
:1041A000DF91CF911F910895D0E0FE01EE0FFF1F28
:1041B000E454FC4F80819181189FB001199F700DCC
:1041C000112463507D4F0E9445202196C370E0CF9B
:1041D0000F931F93CF93DF93DC012D913C911197A7
:1041E00040E090E080E0E82FF0E0EE0FFF1FE20FEC
:1041F000F31FC081D1812097B9F0FB0100811181AB
:1042000090E005C0CE17DF0709F441E09F5FE92F7A
:10421000F0E0EE0FFF1FE00FF11F0190F081E02DA5
:10422000309781F78F5FDFCF442349F0981708F468
:10423000DB01CD01DF91CF911F910F910895B0E087
:10424000A0E0F7CF80910E01882341F180912904ED
:1042500090912A04009711F10E94DE2A20912704F0
:104260003091280428173907C8F49091C40380912D
:10427000C503981759F00E94C2201092280410928A
:10428000270410922A041092290408950E94A41F62
:1042900010922A04109229040E94FF1F0895109280
:1042A0002A041092290410920E018091C503809374
:1042B000C4030E94FF1F0E94A41F089580910E0155
:1042C000882319F00E944F21089581E080930E0108
:1042D0000895AAE0B0E0EFE6F1E20C94F1326C014F
:1042E0003B01FB011281873FFCE59F0751F411233D
:1042F00079F081E080930E01812F2A96E2E10C94FF
:104300000D33883F2CE5920709F04DC0111148C0CC
:104310000DEF12E0F12CE12C198688248394912C66
:1043200080910F0190911001E816F90608F445C03C
:10433000F3018281882309F463C1F985FF2309F41D
:104340005FC10E94C62A90932A0480932904809119
:104350002604883008F591E0980F9093260498E0A1
:10436000F301DE01119601900D929A95E1F72CE090
:10437000829FC00111248A539C4F28E0FE01319690
:10438000DC0101900D922A95E1F72FEF3FEFFC0140
:1043900031872087D386C28611E0F9851F27ACCFED
:1043A0000E944F21A9CF893F9C4509F0B1CF11232D
:1043B00009F4AECF0E945E219FCFF8014081518168
:1043C000AA24AA94BA2C20E0822F90E0FC01EE0FE0
:1043D000FF1FE40FF51F608171816115710531F0D8
:1043E000C616D70609F45C012F5FEECF312CFFEF24
:1043F000AF16BF0609F445C0F801448130900E01A4
:10440000832D411180E0F82FF1703F2EF801558087
:104410008681F3019281992309F490C0332009F435
:104420008DC0511015C0A4010A2C01C0440F0A947C
:10443000EAF7842BF8018683809127049091280461
:10444000C29730F462E370E070932804609327040D
:10445000C40102C0880F991F2A95E2F70197F8015D
:1044600026812817190669F48091290490912A045D
:10447000009781F00E94DE2AC39760F021E0F801E6
:104480002483F985F329F9872FEFE21AF20A095FED
:104490001F4F46CF2090C4033091C5033A8790E068
:1044A00080E06A85261215C08017910751F3A22C6F
:1044B000B12CF501EE0FFF1FE454FC4FF182E082B6
:1044C0007FEFA71AB70A83E0A822BB24A092C503F6
:1044D000D8CFA22CB12CF501EE0FFF1FE454FC4FF6
:1044E0002081318147E0429FC001439F900D1124FC
:1044F000BC0163507D4F2B01B801C2010E94E8202E
:104500000097A9F021E0FC0124838017910709F4AA
:10451000B8CF2091C40322120AC04816590639F4B4
:1045200095012F5F3F4F237033272093C4033FEF44
:10453000A31AB30A4A2D4370242EB3CF90E0511032
:1045400020C0F40102C0EE0FFF1F2A95E2F79F0181
:10455000215031092817390731F4442309F44EC09A
:10456000C7010E941720C4010A2C01C0880F0A94B9
:10457000EAF7982F9095F801868189238683352C58
:1045800080CF9C010A2C02C0359527950A94E2F74A
:10459000A90141705527BC016150710986239723F9
:1045A000892B41F5452B31F1F80182819381892BCB
:1045B000E1F01B821C821D821E82FEEFF983FA83CA
:1045C0000E94C62A8160582F9D838C83F8018281C6
:1045D00093818F83988729813A814B816D817E8178
:1045E0000E946B0CF8011582BECF60E0C7010E94EB
:1045F000A31FF8CFF22FF1705F2EB5CF532CB3CF9E
:104600009091C4038091C503981719F00E94C220AD
:10461000C3CE0E94A41F10922A04109229040E9463
:10462000FF1FBACEEBEFE80FEF3308F068C0F0E001
:10463000E152FC4C0C94E4320E943C0F81E008955E
:1046400080916102807F8093610281E080932E04DB
:10465000089580910C0190910D01892B79F30E94AE
:10466000C003ECCF90916102892F8E7F90FF816013
:104670008093610280FDE2CF817F80936102DECF73
:1046800090916102892F8D7F91FF826080936102FA
:1046900081FFD4CF809161028160EFCF9091610260
:1046A000892F8B7F92FF84608093610282FDF2CF1D
:1046B000C5CF90916102892F877F93FF8860809397
:1046C000610283FDE7CFBACF0E9411089091770471
:1046D000892F97FB87F9805880937704AFCF81E0CB
:1046E0000E946B080E941108A9CF895391E001C074
:1046F000990F8A95EAF7892FF3CF8D51F7CF80E094
:10470000089580E008950E9481230895CF93C82FD3
:1047100080912E048130B9F0882331F08230A1F1EC
:1047200010922E0480E00DC00E94520D8232D1F70B
:104730008C2F0E94812381111BC08C2F0E94122379
:104740008170CF9108950E94520D823289F38C2F8F
:104750000E94832381110AC0C43199F060F4CB30E8
:1047600029F0C03169F782E080932E0481E0E8CF20
:1047700081E090E0E5CFC93221F0C833B9F380E0A1
:10478000DFCF10922E04FBCFC93209F440C0F0F401
:10479000C431E9F1A8F481E0C73099F680930901AA
:1047A00084E1809308018AE0809307018EE1809381
:1047B000060188E08093030188E28093020104C02F
:1047C00082EE8C0F8A3070F181E0BBCFC03509F4E6
:1047D00050C0B8F48AE0CF34B9F7E0912B04F091DF
:1047E0002C04309789F32081082E000C990B820F3E
:1047F000911D8F3F910509F00CF43FC08FEF80832E
:10480000E3CFC135C1F181E0C23539F39ACF809150
:104810002D048823C9F210922D0410922C041092BA
:104820002B04D2CFCD51C0932D04C330C9F048F42E
:10483000C13099F088E091E0C23051F010922D041F
:10484000C3CFC53099F078F082E091E0C630B1F77F
:1048500090932C0480932B04B7CF89E091E0F8CF9C
:1048600087E091E0F5CF86E091E0F2CF83E091E040
:10487000EFCF86EFB2CF8FEFB0CF97FFC0CF1082D0
:10488000A3CFCF93DF93EB0186319C4511F50E94B6
:10489000520D9A81992399F08A7A91E009F490E077
:1048A00090932F04811109C089E20E94020D0E9499
:1048B000BD0D80E0DF91CF91089585E3F6CF809123
:1048C0002F04811104C089E20E940A0DF0CF85E314
:1048D000FBCF81E0EFCFFC018481862351F49281EC
:1048E0009923B9F06923808583FF05C081E06111B8
:1048F0000FC080E00895892F8F7092959F70982B3C
:10490000862F8F7062956F70682B81E09613F1CFC0
:10491000089581E0FDCFCF93DF93EC0160913A04DD
:1049200070913B0480913C0490913D040E94ED2ADB
:10493000643F71408105910518F580913A0490918A
:104940003B04A0913C04B0913D04809336049093C5
:104950003704A0933804B093390484EF91E0A0E0C9
:10496000B0E08093320490933304A0933404B09366
:104970003504D0933104C0933004DF91CF91089572
:104980000E94D22A609336047093370480933804CF
:104990009093390482E390E0A0E0B0E0E2CFFF9290
:1049A0000F931F93CF93DF93F82E00914104109142
:1049B00042040115110509F44DC010923104109202
:1049C00030040E94810D0E947B0D009141041091E2
:1049D0004204D8011696CD91DC919E013A9521159D
:1049E0003F4108F4D07ED1E0C11101C0D0E0D80130
:1049F0001996ED91FC911A97309731F01B966D91B5
:104A00007C9180E00995D823DD2339F08CEF8C0F61
:104A1000813A30F58C2F0E940A0DFF2099F0E09129
:104A20004104F0914204808584FD0CC080914004D3
:104A3000882341F0808191819C0121503109203BE4
:104A40003D45A0F00E94BD0D109242041092410419
:104A500010924004C801CDB7DEB7E5E00C941A33DC
:104A60000E94BD0D8C2F0E941B05D7CF0E948B2466
:104A7000E9CF1092110180E00E94CF240895809127
:104A80001101882319F00E943925089581E080934F
:104A9000110108950F931F93809130049091310478
:104AA000892B89F160913604709137048091380424
:104AB000909139040E94ED2A009132041091330440
:104AC00020913404309135046017710782079307F1
:104AD000D0F080913004909131040E94FB0210923A
:104AE0003104109230041092360410923704109260
:104AF0003804109239041092320410923304109248
:104B00003404109235041F910F910895A4E0B0E091
:104B1000ECE8F5E20C94F1328C017A836983DB01D5
:104B200012965C905520B1F08F35BDE59B0759F08A
:104B30008036EDE59E0759F08E359D4559F40E946B
:104B40003F25312C0DC081E080931101FACF0E94E6
:104B50003925F7CF30901101311007C03324339439
:104B6000832D2496E2E10C940D33680120EEC21AE5
:104B7000D1080E94520DF82E0E94190D482E0E9455
:104B8000840D482A4F2838E0C316D10408F094C099
:104B900098012770332781E090E001C0880F2A95A3
:104BA000EAF7552009F485C0482AA981BA818D9178
:104BB0009C910E94380980900A0190900B01811409
:104BC000910409F4E1C021E030E0390102C0660C33
:104BD000771C8A95E2F7E0914104F0914204FA8350
:104BE000E983A0903E04B0903F04212CE22DF0E038
:104BF000EE0FFF1FE80DF91D208131813C832B83CF
:104C00002115310509F4C0C0411005C0D901129623
:104C10008C9181118BC0EB81FC81838190E0862196
:104C20009721892B09F482C08085982F977009F409
:104C300087E0F8E0CF16D10408F058C0552009F4F9
:104C400051C086958170882309F470C0AB81BC8106
:104C5000ED90FC900E151F0519F4552009F466C05F
:104C6000EB81FC8129813A81E217F30709F45EC0E8
:104C70000584F685E02D309721F08081882309F4A2
:104C800055C0642D8B819C810E946B24882309F47C
:104C90004DC00E151F0509F08BC00115110509F453
:104CA0008CC051108CC0EA14FB0409F03FC0512C99
:104CB00086C08095482279CF552009F44EC01093C4
:104CC0003F0400933E040E94D22A60933A047093FA
:104CD0003B0480933C0490933D0410923104109265
:104CE000300463CF82FB882780F9ADCF5520F1F0E7
:104CF0008170A9CF0E941B0583C00497813A91055A
:104D000048F4802F0E94020D552009F427CF0E94FD
:104D1000BD0D17CF0E94BD0D8FE39CE90197F1F700
:104D200000C00000802F0E94CA04EECF23945ECF03
:104D3000FC01208131812017310731F4511007C067
:104D40001092400480E031C0552009F407CFDC0107
:104D500018968C9185FD02CFF5CF80913E049091FD
:104D60003F048017910781F410923F0410923E0493
:104D700010923A0410923B0410923C0410923D04AD
:104D800010923104109230048091410490914204B9
:104D9000009709F4E3CEA8E0CA16D10448F6642DC2
:104DA0000E946B248111DACE81E00E94CF24D8CEFC
:104DB000E114F10409F077CF512CF12CE12C80E0C3
:104DC0000E94CF24EB81FC81F0934204E0934104E4
:104DD00081E08093400485810E947E0D511010C0B7
:104DE000E114F10469F0AB81BC818D919C919C012F
:104DF00024503109213A310508F07CCF0E940A0D78
:104E0000EB81FC8106811781C8019A9581159F412C
:104E100008F4107EFF24F394C8010197803B9D4560
:104E200008F0F12CAB81BC811996ED91FC911A9799
:104E3000309731F01B966D917C9181E00995F822B5
:104E4000FF2081F0EB81FC81868197810E94C00266
:104E50000E94780DC801F8E0CF16D10408F04DCFBC
:104E60000E948B240E94BD0D4FCFB0E0A0E0EBE389
:104E7000F7E20C94F9327C015B01C42FD22FFC01C4
:104E800082818823C9F0409345040E94C62A9093EA
:104E900044048093430480E28C0F883040F4C77050
:104EA00081E001C0880FCA95EAF70E946E05CDB770
:104EB000DEB7EAE00C94153310914504141338C0A2
:104EC00080914304909144040E94DE2A6C01B70152
:104ED000C5010E94981BC816D90650F5C0E2CD0F37
:104EE0001D17C1F080E2810F883048F4177081E00F
:104EF000012E01C0880F0A94EAF70E947505C83098
:104F000048F481E09D2F977001C0880F9A95EAF7C9
:104F10000E946E05802F0E946505C83040F6D7704C
:104F200081E001C0880FDA95EAF70E947505BFCFCE
:104F300080E28C0F883008F0BACFC77081E001C0E2
:104F4000880FCA95EAF7F1CF0F939C01CB01233F5D
:104F50004CE5340759F1A8F4283DFCE53F0701F181
:104F6000293D4CE53407D1F1273D3C4591F406E25B
:104F700021EE41EE67ED7CE50E94352780E00F9140
:104F80000895253FFCE53F07E9F0B0F0263F3C459A
:104F9000F9F0FC018281882339F110924504EFCFAA
:104FA00007E225EE45EE68ED7CE5E6CF06E221EE70
:104FB00040EE63EF7CE5E0CF07E225EE44EE64EFE0
:104FC0007CE5DACF06E221EE42EE65EF7CE5D4CF58
:104FD00007E225EE46EE66EF7CE5CECF08E221E063
:104FE00045EE69ED7CE5C8CF81E0C9CFCF93DF9373
:104FF000EC01EA85FB85309719F06C857D85099574
:105000008B810E946E0D8C810E945B0D0E94BD0DF4
:1050100086E0FE0111928A95E9F7DF91CF9108951C
:10502000CF93DF93EC018D8181FD12C082608D836F
:105030008B810E94680D8C810E94550D0E94BD0DD0
:10504000E885F985309721F06C857D85CE0109953D
:1050500010924904109248048D8180FD03C0CE0156
:105060000E94F627DF91CF910895FB012281222330
:10507000E1F0E0914804F09149043097B1F0E8176D
:10508000F90799F02EE0E29FF0011124DF01A65C00
:10509000BC4F2C9124602C93EB5CFC4F918380835C
:1050A000CF010E9410280E94750D0895EF92FF9283
:1050B0000F931F93CF93DF938C0197558F3F9105EB
:1050C00011F008F041C07801FF248EE0089FF00144
:1050D0001124EF01CB5CDC4FDB0112962C91E65CD6
:1050E000FC4F808120FB80F98083222399F10E946C
:1050F000C62A90934704809346048A818F5F8A83EF
:105100000E94520D8B830E94650D9B81892B8B839E
:105110000E94840D8C83EE81FF81309721F06C8595
:105120007D85CE0109958EE08E9DF0018F9DF00D5D
:105130001124EB5CFC4F858181FF02C010E000E090
:10514000109349040093480481E0CDB7DEB7E6E050
:105150000C9419338D8181FFF7CFCE010E94F62781
:10516000F3CFA8E0B0E0E7EBF8E20C94FF328091D7
:10517000480490914904892B41F180914604909113
:1051800047040E94DE2A8C01BE016F5F7F4F88E0DA
:10519000FB0111928A95E9F78091480490914904A6
:1051A0000E94981B8017910780F480914804FEE0CC
:1051B0008F9FC0011124FC01E65CFC4F208122FD81
:1051C00004C08B5C9C4F0E9410282896E4E00C944D
:1051D0001B339093A7018093A601089590934F04E9
:1051E00080934E040895E0914E04F0914F0430975F
:1051F00029F00190F081E02D0995089580E008954F
:10520000E0914E04F0914F04309799F020911E01E7
:10521000222359F02091770427FF07C0DC012C914D
:1052200011962C93119726E02C930280F381E02DA8
:1052300009950895E0914E04F0914F04309739F0AC
:1052400022E0DC012C930480F581E02D099508957E
:1052500020914C0430914D042817390771F0909338
:105260004D0480934C04E0914E04F0914F0430972C
:1052700021F00680F781E02D0995089520914A04D8
:1052800030914B042817390771F090934B048093A9
:105290004A04E0914E04F0914F04309721F00084CD
:1052A000F185E02D09950895FC01329680911E014B
:1052B000882321F0809177049EE187FF96E080E0CB
:1052C000915008F4089521912223D1F38F5FF8CFF4
:1052D000662301F120911E012223F1F02091770431
:1052E00027FF1AC0462F4695469546954E3190F4B5
:1052F000677021E030E002C0220F331F6A95E2F7A9
:10530000840F911DFC01828190E02823392381E0E4
:10531000232B69F480E00895FC01329608962191D0
:10532000261721F0E817F907D1F7F4CF81E00895A7
:105330009C01FC0132969FEF80E04191461751F0AD
:105340009F3F19F4411101C0982F8F5F8630A9F754
:105350009F3F09F40895290F311D97FD3A95F901F2
:1053600062830895FC01329608962191261303C0AA
:10537000DF0111971C92E817F907B9F70895E62F96
:10538000E695E695E695EE3168F4E80FF92FF11D04
:10539000677021E030E001C0220F6A95EAF7828150
:1053A000822B82830895E62FE695E695E695EE3109
:1053B00070F4E80FF92FF11D677021E030E001C0B3
:1053C000220F6A95EAF72095828128232283089587
:1053D00020911E01222339F02091770427FF03C07A
:1053E0000E94BF2908950E949829089520911E01C6
:1053F000222339F02091770427FF03C00E94D3298C
:1054000008950E94B2290895FC01329680911E01F0
:10541000882351F08091770487FF06C08EE1DF0179
:105420001D928A95E9F7089586E0F9CF46E050E0AD
:105430000E94453321E0892B09F420E0822F089552
:1054400008950E94202A0895811106C081E080936A
:1054500050040E94212A089582E0F9CF83E08093CE
:1054600050040E94212A08950E94242A089581E070
:10547000809350040E94212A08950E94372A08959B
:10548000089508950E94412A0895089508950E945C
:10549000402A0895CF930E94452A0E9405130E9436
:1054A000462AC0E08C2F0E943C12892B31F4CF5F3A
:1054B000C330C1F780E0CF91089581E0FCCF85B77C
:1054C000806885BF85B7806885BF08951F921FB625
:1054D0001F9211248F939F93AF93BF938091510498
:1054E000811113C08091D7049091D804A091D90460
:1054F000B091DA044196A11DB11D8093D704909319
:10550000D804A093D904B093DA04BF91AF919F91CE
:105510008F911F901FBE1F9018958091DF048430DB
:1055200031F10E943C041092510488E190E020E4A3
:105530000FB6F894A895809360000FBE209360008A
:1055400083B7817F846083BF83B7816083BF789492
:10555000889583B78E7F83BF0FB6F894A895809106
:105560006000886180936000109260000FBE089513
:105570000E9411080E944104089582E084BD93E0D6
:1055800095BD9AEF97BD80936E0008952FB7F8945C
:105590008091D7049091D804A091D904B091DA04F5
:1055A0002FBF08952FB7F8946091D7047091D80455
:1055B0008091D9049091DA042FBF08959C014FB7D0
:1055C000F8948091D7049091D804A091D904B09117
:1055D000DA044FBF821B930B0895CF92DF92EF92B4
:1055E000FF922FB7F894C090D704D090D804E090E1
:1055F000D904F090DA042FBFA7019601261B370BC0
:10560000480B590BCA01B901FF90EF90DF90CF9082
:10561000089578941F921FB61F9211248F939F9321
:10562000AF93BF938091D7049091D804A091D904EF
:10563000B091DA040196A11DB11D8093D704909317
:10564000D804A093D904B093DA04BF91AF919F918D
:105650008F911F901FBE1F90189587E797E7909333
:1056600001088093000888E19AE00FB6F894A895A5
:10567000809360000FBE90936000FFCF88E19AE0B6
:105680000FB6F894A895809360000FBE90936000C9
:10569000FFCF80917504089508959C0184E0809364
:1056A000E9009FEF8091E800915085FD06C085EDEF
:1056B0008A95F1F700009111F5CF8091E80085FF00
:1056C0000CC050E040E066E070E0C9010E94FA2D95
:1056D0008091E8008E778093E8000895CF93DF9360
:1056E000EC0180911E018823B1F18091770487FF3E
:1056F00032C060E284E08093E9008FEF9091E8008F
:10570000815095FD06C095ED9A95F1F70000811145
:10571000F5CF8091E80085FF1BC080911E0170E0ED
:1057200050E040E0811104C050E040E068E070E0EB
:10573000CE010E94FA2D8091E8008E778093E800D8
:1057400080E2FE01A5E5B4E001900D928A95E1F7B3
:10575000DF91CF91089568E081E0CDCF809352042E
:1057600070935404609353048091DF048430F9F4FF
:105770008093E9008FEF9091E800815095FD06C07D
:1057800095ED9A95F1F700008111F5CF8091E80031
:1057900085FF0DC050E040E063E070E082E594E0FA
:1057A0000E94FA2D8091E8008E778093E80008959A
:1057B000BC0184E00E94AE2B0895BC0183E00E94EE
:1057C000AE2B0895CF93FC01603221F58091DF0468
:1057D000843001F5C091E900CF702091EC00922F48
:1057E000917020FD90E8C92B82E08093E9008091C0
:1057F000E80080FF0CC050E040E060E270E0CF01C4
:105800000E94FA2D8091E8008E778093E800CF7097
:10581000C093E900CF9108958091DE04811109C001
:105820000E94D92F0E9436308091E20084608093DC
:10583000E20008951092DE0408950E94372A089528
:105840006091DB0481E0611101C080E00E942E2A9A
:1058500008959091DF0481E0943009F080E0609138
:10586000DB040E94342A089542E061EC81E00E944A
:10587000552F42E261EC84E00E94552F42E261EC38
:1058800082E00E94552F42E260EC83E00E94552F97
:105890009091DF0481E0943009F080E06091DB04B6
:1058A0000E94242A08958091E104833009F463C0A2
:1058B00030F48130E1F1823009F4A0C008958A30DB
:1058C00009F48CC08B3009F471C0893009F052C0E2
:1058D0008091E004813209F04DC08091E404909100
:1058E000E504009719F0029709F044C08091E800A0
:1058F000877F8093E8008091E80082FF37C0909115
:10590000F3008091F200029731F48091F100813030
:1059100011F0863021F48091F1008093750480911C
:10592000E8008B778093E8000E94892F23C0809144
:10593000E004813AF9F48091E800877F8093E800E1
:105940008091E4049091E504892B61F460E285E59F
:1059500094E070E00E94982E8091E8008B7780930D
:10596000E800089560E090E080E0F3CF8091DF04EC
:105970008111C1CF08958091E004813AD9F78091D7
:10598000E4049091E504892BA9F78091E800877FD2
:105990008093E8008091E80080FFFCCF80911E0199
:1059A0008093F1008091E8008E77BCCF8091E00475
:1059B000813201F78091E4049091E504892BD1F6BE
:1059C0008091E800877F8093E8000E94892F809172
:1059D000E20480931E010E94110808958091E00462
:1059E000813241F68091E800877F8093E8000E9431
:1059F000892F8091E3048093760408958091E004D8
:105A0000813A09F0B7CF8091E800877F8093E80062
:105A10008091E80080FFFCCF80917604C1CF84B7ED
:105A2000877F84BF0FB6F894A89580916000886145
:105A300080936000109260000FBE80E890E00FB687
:105A4000F89480936100909361000FBE0E943D2AFC
:105A500008950E94D92F0E943630E2EEF0E0808156
:105A60008460808378940E94B532089582E191E049
:105A70000E94EE2808958091DF04853031F48091F2
:105A8000DF04853019F00E94B82A08950E948D2AFB
:105A90008091DD04882399F30E944A2A882379F3B0
:105AA0000E94E42D0E941108EACFA0E2B0E0EBE5ED
:105AB000FDE20C9401338091DF04843009F583E02A
:105AC0008093E9008091E80082FF1AC08091E8008D
:105AD00090E085FF09C050E040E060E270E0CE0158
